{
  "contractName": "ERC721WithRoyalties",
  "abi": [
    {
      "inputs": [],
      "stateMutability": "nonpayable",
      "type": "constructor"
    },
    {
      "anonymous": false,
      "inputs": [
        {
          "indexed": true,
          "internalType": "address",
          "name": "owner",
          "type": "address"
        },
        {
          "indexed": true,
          "internalType": "address",
          "name": "approved",
          "type": "address"
        },
        {
          "indexed": true,
          "internalType": "uint256",
          "name": "tokenId",
          "type": "uint256"
        }
      ],
      "name": "Approval",
      "type": "event"
    },
    {
      "anonymous": false,
      "inputs": [
        {
          "indexed": true,
          "internalType": "address",
          "name": "owner",
          "type": "address"
        },
        {
          "indexed": true,
          "internalType": "address",
          "name": "operator",
          "type": "address"
        },
        {
          "indexed": false,
          "internalType": "bool",
          "name": "approved",
          "type": "bool"
        }
      ],
      "name": "ApprovalForAll",
      "type": "event"
    },
    {
      "anonymous": false,
      "inputs": [
        {
          "indexed": true,
          "internalType": "address",
          "name": "from",
          "type": "address"
        },
        {
          "indexed": true,
          "internalType": "address",
          "name": "to",
          "type": "address"
        },
        {
          "indexed": true,
          "internalType": "uint256",
          "name": "tokenId",
          "type": "uint256"
        }
      ],
      "name": "Transfer",
      "type": "event"
    },
    {
      "inputs": [
        {
          "internalType": "address",
          "name": "to",
          "type": "address"
        },
        {
          "internalType": "uint256",
          "name": "tokenId",
          "type": "uint256"
        }
      ],
      "name": "approve",
      "outputs": [],
      "stateMutability": "nonpayable",
      "type": "function"
    },
    {
      "inputs": [
        {
          "internalType": "address",
          "name": "owner",
          "type": "address"
        }
      ],
      "name": "balanceOf",
      "outputs": [
        {
          "internalType": "uint256",
          "name": "",
          "type": "uint256"
        }
      ],
      "stateMutability": "view",
      "type": "function"
    },
    {
      "inputs": [
        {
          "internalType": "uint256",
          "name": "tokenId",
          "type": "uint256"
        }
      ],
      "name": "getApproved",
      "outputs": [
        {
          "internalType": "address",
          "name": "",
          "type": "address"
        }
      ],
      "stateMutability": "view",
      "type": "function"
    },
    {
      "inputs": [
        {
          "internalType": "address",
          "name": "owner",
          "type": "address"
        },
        {
          "internalType": "address",
          "name": "operator",
          "type": "address"
        }
      ],
      "name": "isApprovedForAll",
      "outputs": [
        {
          "internalType": "bool",
          "name": "",
          "type": "bool"
        }
      ],
      "stateMutability": "view",
      "type": "function"
    },
    {
      "inputs": [],
      "name": "name",
      "outputs": [
        {
          "internalType": "string",
          "name": "",
          "type": "string"
        }
      ],
      "stateMutability": "view",
      "type": "function"
    },
    {
      "inputs": [
        {
          "internalType": "uint256",
          "name": "tokenId",
          "type": "uint256"
        }
      ],
      "name": "ownerOf",
      "outputs": [
        {
          "internalType": "address",
          "name": "",
          "type": "address"
        }
      ],
      "stateMutability": "view",
      "type": "function"
    },
    {
      "inputs": [
        {
          "internalType": "uint256",
          "name": "tokenId",
          "type": "uint256"
        },
        {
          "internalType": "uint256",
          "name": "value",
          "type": "uint256"
        }
      ],
      "name": "royaltyInfo",
      "outputs": [
        {
          "internalType": "address",
          "name": "receiver",
          "type": "address"
        },
        {
          "internalType": "uint256",
          "name": "royaltyAmount",
          "type": "uint256"
        }
      ],
      "stateMutability": "view",
      "type": "function"
    },
    {
      "inputs": [
        {
          "internalType": "address",
          "name": "from",
          "type": "address"
        },
        {
          "internalType": "address",
          "name": "to",
          "type": "address"
        },
        {
          "internalType": "uint256",
          "name": "tokenId",
          "type": "uint256"
        }
      ],
      "name": "safeTransferFrom",
      "outputs": [],
      "stateMutability": "nonpayable",
      "type": "function"
    },
    {
      "inputs": [
        {
          "internalType": "address",
          "name": "from",
          "type": "address"
        },
        {
          "internalType": "address",
          "name": "to",
          "type": "address"
        },
        {
          "internalType": "uint256",
          "name": "tokenId",
          "type": "uint256"
        },
        {
          "internalType": "bytes",
          "name": "_data",
          "type": "bytes"
        }
      ],
      "name": "safeTransferFrom",
      "outputs": [],
      "stateMutability": "nonpayable",
      "type": "function"
    },
    {
      "inputs": [
        {
          "internalType": "address",
          "name": "operator",
          "type": "address"
        },
        {
          "internalType": "bool",
          "name": "approved",
          "type": "bool"
        }
      ],
      "name": "setApprovalForAll",
      "outputs": [],
      "stateMutability": "nonpayable",
      "type": "function"
    },
    {
      "inputs": [],
      "name": "symbol",
      "outputs": [
        {
          "internalType": "string",
          "name": "",
          "type": "string"
        }
      ],
      "stateMutability": "view",
      "type": "function"
    },
    {
      "inputs": [
        {
          "internalType": "uint256",
          "name": "tokenId",
          "type": "uint256"
        }
      ],
      "name": "tokenURI",
      "outputs": [
        {
          "internalType": "string",
          "name": "",
          "type": "string"
        }
      ],
      "stateMutability": "view",
      "type": "function"
    },
    {
      "inputs": [
        {
          "internalType": "address",
          "name": "from",
          "type": "address"
        },
        {
          "internalType": "address",
          "name": "to",
          "type": "address"
        },
        {
          "internalType": "uint256",
          "name": "tokenId",
          "type": "uint256"
        }
      ],
      "name": "transferFrom",
      "outputs": [],
      "stateMutability": "nonpayable",
      "type": "function"
    },
    {
      "inputs": [
        {
          "internalType": "bytes4",
          "name": "interfaceId",
          "type": "bytes4"
        }
      ],
      "name": "supportsInterface",
      "outputs": [
        {
          "internalType": "bool",
          "name": "",
          "type": "bool"
        }
      ],
      "stateMutability": "view",
      "type": "function"
    },
    {
      "inputs": [
        {
          "internalType": "address",
          "name": "to",
          "type": "address"
        },
        {
          "internalType": "address",
          "name": "royaltyRecipient",
          "type": "address"
        },
        {
          "internalType": "uint256",
          "name": "royaltyValue",
          "type": "uint256"
        }
      ],
      "name": "mint",
      "outputs": [],
      "stateMutability": "nonpayable",
      "type": "function"
    },
    {
      "inputs": [
        {
          "internalType": "address[]",
          "name": "recipients",
          "type": "address[]"
        },
        {
          "internalType": "address[]",
          "name": "royaltyRecipients",
          "type": "address[]"
        },
        {
          "internalType": "uint256[]",
          "name": "royaltyValues",
          "type": "uint256[]"
        }
      ],
      "name": "mintBatch",
      "outputs": [],
      "stateMutability": "nonpayable",
      "type": "function"
    }
  ],
  "bytecode": "0x60806040523480156200001157600080fd5b506040518060400160405280600681526020017f4475706c617300000000000000000000000000000000000000000000000000008152506040518060400160405280600581526020017f4455504c41000000000000000000000000000000000000000000000000000000815250816000908051906020019062000096929190620000b8565b508060019080519060200190620000af929190620000b8565b505050620001cd565b828054620000c69062000197565b90600052602060002090601f016020900481019282620000ea576000855562000136565b82601f106200010557805160ff191683800117855562000136565b8280016001018555821562000136579182015b828111156200013557825182559160200191906001019062000118565b5b50905062000145919062000149565b5090565b5b80821115620001645760008160009055506001016200014a565b5090565b7f4e487b7100000000000000000000000000000000000000000000000000000000600052602260045260246000fd5b60006002820490506001821680620001b057607f821691505b60208210811415620001c757620001c662000168565b5b50919050565b612ef980620001dd6000396000f3fe608060405234801561001057600080fd5b50600436106101005760003560e01c806370a0823111610097578063c6c3bbe611610066578063c6c3bbe6146102be578063c87b56dd146102da578063ccee286d1461030a578063e985e9c51461032657610100565b806370a082311461023857806395d89b4114610268578063a22cb46514610286578063b88d4fde146102a257610100565b806323b872dd116100d357806323b872dd1461019f5780632a55205a146101bb57806342842e0e146101ec5780636352211e1461020857610100565b806301ffc9a71461010557806306fdde0314610135578063081812fc14610153578063095ea7b314610183575b600080fd5b61011f600480360381019061011a9190611aaf565b610356565b60405161012c9190611af7565b60405180910390f35b61013d610368565b60405161014a9190611bab565b60405180910390f35b61016d60048036038101906101689190611c03565b6103fa565b60405161017a9190611c71565b60405180910390f35b61019d60048036038101906101989190611cb8565b61047f565b005b6101b960048036038101906101b49190611cf8565b610597565b005b6101d560048036038101906101d09190611d4b565b6105f7565b6040516101e3929190611d9a565b60405180910390f35b61020660048036038101906102019190611cf8565b6106c8565b005b610222600480360381019061021d9190611c03565b6106e8565b60405161022f9190611c71565b60405180910390f35b610252600480360381019061024d9190611dc3565b61079a565b60405161025f9190611df0565b60405180910390f35b610270610852565b60405161027d9190611bab565b60405180910390f35b6102a0600480360381019061029b9190611e37565b6108e4565b005b6102bc60048036038101906102b79190611fac565b6108fa565b005b6102d860048036038101906102d39190611cf8565b61095c565b005b6102f460048036038101906102ef9190611c03565b6109ab565b6040516103019190611bab565b60405180910390f35b610324600480360381019061031f91906121ba565b610a52565b005b610340600480360381019061033b9190612261565b610b7c565b60405161034d9190611af7565b60405180910390f35b600061036182610c10565b9050919050565b606060008054610377906122d0565b80601f01602080910402602001604051908101604052809291908181526020018280546103a3906122d0565b80156103f05780601f106103c5576101008083540402835291602001916103f0565b820191906000526020600020905b8154815290600101906020018083116103d357829003601f168201915b5050505050905090565b600061040582610c8a565b610444576040517f08c379a000000000000000000000000000000000000000000000000000000000815260040161043b90612374565b60405180910390fd5b6004600083815260200190815260200160002060009054906101000a900473ffffffffffffffffffffffffffffffffffffffff169050919050565b600061048a826106e8565b90508073ffffffffffffffffffffffffffffffffffffffff168373ffffffffffffffffffffffffffffffffffffffff1614156104fb576040517f08c379a00000000000000000000000000000000000000000000000000000000081526004016104f290612406565b60405180910390fd5b8073ffffffffffffffffffffffffffffffffffffffff1661051a610cf6565b73ffffffffffffffffffffffffffffffffffffffff161480610549575061054881610543610cf6565b610b7c565b5b610588576040517f08c379a000000000000000000000000000000000000000000000000000000000815260040161057f90612498565b60405180910390fd5b6105928383610cfe565b505050565b6105a86105a2610cf6565b82610db7565b6105e7576040517f08c379a00000000000000000000000000000000000000000000000000000000081526004016105de9061252a565b60405180910390fd5b6105f2838383610e95565b505050565b6000806000600660008681526020019081526020016000206040518060400160405290816000820160009054906101000a900473ffffffffffffffffffffffffffffffffffffffff1673ffffffffffffffffffffffffffffffffffffffff1673ffffffffffffffffffffffffffffffffffffffff1681526020016000820160149054906101000a900462ffffff1662ffffff1662ffffff1681525050905080600001519250612710816020015162ffffff16856106b49190612579565b6106be9190612602565b9150509250929050565b6106e3838383604051806020016040528060008152506108fa565b505050565b6000806002600084815260200190815260200160002060009054906101000a900473ffffffffffffffffffffffffffffffffffffffff169050600073ffffffffffffffffffffffffffffffffffffffff168173ffffffffffffffffffffffffffffffffffffffff161415610791576040517f08c379a0000000000000000000000000000000000000000000000000000000008152600401610788906126a5565b60405180910390fd5b80915050919050565b60008073ffffffffffffffffffffffffffffffffffffffff168273ffffffffffffffffffffffffffffffffffffffff16141561080b576040517f08c379a000000000000000000000000000000000000000000000000000000000815260040161080290612737565b60405180910390fd5b600360008373ffffffffffffffffffffffffffffffffffffffff1673ffffffffffffffffffffffffffffffffffffffff168152602001908152602001600020549050919050565b606060018054610861906122d0565b80601f016020809104026020016040519081016040528092919081815260200182805461088d906122d0565b80156108da5780601f106108af576101008083540402835291602001916108da565b820191906000526020600020905b8154815290600101906020018083116108bd57829003601f168201915b5050505050905090565b6108f66108ef610cf6565b83836110f1565b5050565b61090b610905610cf6565b83610db7565b61094a576040517f08c379a00000000000000000000000000000000000000000000000000000000081526004016109419061252a565b60405180910390fd5b6109568484848461125e565b50505050565b6000600754905061097d8482604051806020016040528060008152506112ba565b600082111561099257610991818484611315565b5b60018161099f9190612757565b60078190555050505050565b60606109b682610c8a565b6109f5576040517f08c379a00000000000000000000000000000000000000000000000000000000081526004016109ec9061281f565b60405180910390fd5b60006109ff611411565b90506000815111610a1f5760405180602001604052806000815250610a4a565b80610a2984611428565b604051602001610a3a92919061287b565b6040516020818303038152906040525b915050919050565b6000600754905082518451148015610a6b575081518451145b610aaa576040517f08c379a0000000000000000000000000000000000000000000000000000000008152600401610aa1906128eb565b60405180910390fd5b60005b8451811015610b6e57610aea858281518110610acc57610acb61290b565b5b602002602001015183604051806020016040528060008152506112ba565b6000838281518110610aff57610afe61290b565b5b60200260200101511115610b4d57610b4c82858381518110610b2457610b2361290b565b5b6020026020010151858481518110610b3f57610b3e61290b565b5b6020026020010151611315565b5b8180610b589061293a565b9250508080610b669061293a565b915050610aad565b508060078190555050505050565b6000600560008473ffffffffffffffffffffffffffffffffffffffff1673ffffffffffffffffffffffffffffffffffffffff16815260200190815260200160002060008373ffffffffffffffffffffffffffffffffffffffff1673ffffffffffffffffffffffffffffffffffffffff16815260200190815260200160002060009054906101000a900460ff16905092915050565b60007f2a55205a000000000000000000000000000000000000000000000000000000007bffffffffffffffffffffffffffffffffffffffffffffffffffffffff1916827bffffffffffffffffffffffffffffffffffffffffffffffffffffffff19161480610c835750610c8282611589565b5b9050919050565b60008073ffffffffffffffffffffffffffffffffffffffff166002600084815260200190815260200160002060009054906101000a900473ffffffffffffffffffffffffffffffffffffffff1673ffffffffffffffffffffffffffffffffffffffff1614159050919050565b600033905090565b816004600083815260200190815260200160002060006101000a81548173ffffffffffffffffffffffffffffffffffffffff021916908373ffffffffffffffffffffffffffffffffffffffff160217905550808273ffffffffffffffffffffffffffffffffffffffff16610d71836106e8565b73ffffffffffffffffffffffffffffffffffffffff167f8c5be1e5ebec7d5bd14f71427d1e84f3dd0314c0f7b2291e5b200ac8c7c3b92560405160405180910390a45050565b6000610dc282610c8a565b610e01576040517f08c379a0000000000000000000000000000000000000000000000000000000008152600401610df8906129f5565b60405180910390fd5b6000610e0c836106e8565b90508073ffffffffffffffffffffffffffffffffffffffff168473ffffffffffffffffffffffffffffffffffffffff161480610e7b57508373ffffffffffffffffffffffffffffffffffffffff16610e63846103fa565b73ffffffffffffffffffffffffffffffffffffffff16145b80610e8c5750610e8b8185610b7c565b5b91505092915050565b8273ffffffffffffffffffffffffffffffffffffffff16610eb5826106e8565b73ffffffffffffffffffffffffffffffffffffffff1614610f0b576040517f08c379a0000000000000000000000000000000000000000000000000000000008152600401610f0290612a87565b60405180910390fd5b600073ffffffffffffffffffffffffffffffffffffffff168273ffffffffffffffffffffffffffffffffffffffff161415610f7b576040517f08c379a0000000000000000000000000000000000000000000000000000000008152600401610f7290612b19565b60405180910390fd5b610f8683838361166b565b610f91600082610cfe565b6001600360008573ffffffffffffffffffffffffffffffffffffffff1673ffffffffffffffffffffffffffffffffffffffff1681526020019081526020016000206000828254610fe19190612b39565b925050819055506001600360008473ffffffffffffffffffffffffffffffffffffffff1673ffffffffffffffffffffffffffffffffffffffff16815260200190815260200160002060008282546110389190612757565b92505081905550816002600083815260200190815260200160002060006101000a81548173ffffffffffffffffffffffffffffffffffffffff021916908373ffffffffffffffffffffffffffffffffffffffff160217905550808273ffffffffffffffffffffffffffffffffffffffff168473ffffffffffffffffffffffffffffffffffffffff167fddf252ad1be2c89b69c2b068fc378daa952ba7f163c4a11628f55a4df523b3ef60405160405180910390a4505050565b8173ffffffffffffffffffffffffffffffffffffffff168373ffffffffffffffffffffffffffffffffffffffff161415611160576040517f08c379a000000000000000000000000000000000000000000000000000000000815260040161115790612bb9565b60405180910390fd5b80600560008573ffffffffffffffffffffffffffffffffffffffff1673ffffffffffffffffffffffffffffffffffffffff16815260200190815260200160002060008473ffffffffffffffffffffffffffffffffffffffff1673ffffffffffffffffffffffffffffffffffffffff16815260200190815260200160002060006101000a81548160ff0219169083151502179055508173ffffffffffffffffffffffffffffffffffffffff168373ffffffffffffffffffffffffffffffffffffffff167f17307eab39ab6107e8899845ad3d59bd9653f200f220920489ca2b5937696c31836040516112519190611af7565b60405180910390a3505050565b611269848484610e95565b61127584848484611670565b6112b4576040517f08c379a00000000000000000000000000000000000000000000000000000000081526004016112ab90612c4b565b60405180910390fd5b50505050565b6112c483836117f8565b6112d16000848484611670565b611310576040517f08c379a000000000000000000000000000000000000000000000000000000000815260040161130790612c4b565b60405180910390fd5b505050565b61271081111561135a576040517f08c379a000000000000000000000000000000000000000000000000000000000815260040161135190612cb7565b60405180910390fd5b60405180604001604052808373ffffffffffffffffffffffffffffffffffffffff1681526020018262ffffff168152506006600085815260200190815260200160002060008201518160000160006101000a81548173ffffffffffffffffffffffffffffffffffffffff021916908373ffffffffffffffffffffffffffffffffffffffff16021790555060208201518160000160146101000a81548162ffffff021916908362ffffff160217905550905050505050565b606060405180602001604052806000815250905090565b60606000821415611470576040518060400160405280600181526020017f30000000000000000000000000000000000000000000000000000000000000008152509050611584565b600082905060005b600082146114a257808061148b9061293a565b915050600a8261149b9190612602565b9150611478565b60008167ffffffffffffffff8111156114be576114bd611e81565b5b6040519080825280601f01601f1916602001820160405280156114f05781602001600182028036833780820191505090505b5090505b6000851461157d576001826115099190612b39565b9150600a856115189190612cd7565b60306115249190612757565b60f81b81838151811061153a5761153961290b565b5b60200101907effffffffffffffffffffffffffffffffffffffffffffffffffffffffffffff1916908160001a905350600a856115769190612602565b94506114f4565b8093505050505b919050565b60007f80ac58cd000000000000000000000000000000000000000000000000000000007bffffffffffffffffffffffffffffffffffffffffffffffffffffffff1916827bffffffffffffffffffffffffffffffffffffffffffffffffffffffff1916148061165457507f5b5e139f000000000000000000000000000000000000000000000000000000007bffffffffffffffffffffffffffffffffffffffffffffffffffffffff1916827bffffffffffffffffffffffffffffffffffffffffffffffffffffffff1916145b806116645750611663826119c6565b5b9050919050565b505050565b60006116918473ffffffffffffffffffffffffffffffffffffffff16611a30565b156117eb578373ffffffffffffffffffffffffffffffffffffffff1663150b7a026116ba610cf6565b8786866040518563ffffffff1660e01b81526004016116dc9493929190612d5d565b6020604051808303816000875af192505050801561171857506040513d601f19601f820116820180604052508101906117159190612dbe565b60015b61179b573d8060008114611748576040519150601f19603f3d011682016040523d82523d6000602084013e61174d565b606091505b50600081511415611793576040517f08c379a000000000000000000000000000000000000000000000000000000000815260040161178a90612c4b565b60405180910390fd5b805181602001fd5b63150b7a0260e01b7bffffffffffffffffffffffffffffffffffffffffffffffffffffffff1916817bffffffffffffffffffffffffffffffffffffffffffffffffffffffff1916149150506117f0565b600190505b949350505050565b600073ffffffffffffffffffffffffffffffffffffffff168273ffffffffffffffffffffffffffffffffffffffff161415611868576040517f08c379a000000000000000000000000000000000000000000000000000000000815260040161185f90612e37565b60405180910390fd5b61187181610c8a565b156118b1576040517f08c379a00000000000000000000000000000000000000000000000000000000081526004016118a890612ea3565b60405180910390fd5b6118bd6000838361166b565b6001600360008473ffffffffffffffffffffffffffffffffffffffff1673ffffffffffffffffffffffffffffffffffffffff168152602001908152602001600020600082825461190d9190612757565b92505081905550816002600083815260200190815260200160002060006101000a81548173ffffffffffffffffffffffffffffffffffffffff021916908373ffffffffffffffffffffffffffffffffffffffff160217905550808273ffffffffffffffffffffffffffffffffffffffff16600073ffffffffffffffffffffffffffffffffffffffff167fddf252ad1be2c89b69c2b068fc378daa952ba7f163c4a11628f55a4df523b3ef60405160405180910390a45050565b60007f01ffc9a7000000000000000000000000000000000000000000000000000000007bffffffffffffffffffffffffffffffffffffffffffffffffffffffff1916827bffffffffffffffffffffffffffffffffffffffffffffffffffffffff1916149050919050565b600080823b905060008111915050919050565b6000604051905090565b600080fd5b600080fd5b60007fffffffff0000000000000000000000000000000000000000000000000000000082169050919050565b611a8c81611a57565b8114611a9757600080fd5b50565b600081359050611aa981611a83565b92915050565b600060208284031215611ac557611ac4611a4d565b5b6000611ad384828501611a9a565b91505092915050565b60008115159050919050565b611af181611adc565b82525050565b6000602082019050611b0c6000830184611ae8565b92915050565b600081519050919050565b600082825260208201905092915050565b60005b83811015611b4c578082015181840152602081019050611b31565b83811115611b5b576000848401525b50505050565b6000601f19601f8301169050919050565b6000611b7d82611b12565b611b878185611b1d565b9350611b97818560208601611b2e565b611ba081611b61565b840191505092915050565b60006020820190508181036000830152611bc58184611b72565b905092915050565b6000819050919050565b611be081611bcd565b8114611beb57600080fd5b50565b600081359050611bfd81611bd7565b92915050565b600060208284031215611c1957611c18611a4d565b5b6000611c2784828501611bee565b91505092915050565b600073ffffffffffffffffffffffffffffffffffffffff82169050919050565b6000611c5b82611c30565b9050919050565b611c6b81611c50565b82525050565b6000602082019050611c866000830184611c62565b92915050565b611c9581611c50565b8114611ca057600080fd5b50565b600081359050611cb281611c8c565b92915050565b60008060408385031215611ccf57611cce611a4d565b5b6000611cdd85828601611ca3565b9250506020611cee85828601611bee565b9150509250929050565b600080600060608486031215611d1157611d10611a4d565b5b6000611d1f86828701611ca3565b9350506020611d3086828701611ca3565b9250506040611d4186828701611bee565b9150509250925092565b60008060408385031215611d6257611d61611a4d565b5b6000611d7085828601611bee565b9250506020611d8185828601611bee565b9150509250929050565b611d9481611bcd565b82525050565b6000604082019050611daf6000830185611c62565b611dbc6020830184611d8b565b9392505050565b600060208284031215611dd957611dd8611a4d565b5b6000611de784828501611ca3565b91505092915050565b6000602082019050611e056000830184611d8b565b92915050565b611e1481611adc565b8114611e1f57600080fd5b50565b600081359050611e3181611e0b565b92915050565b60008060408385031215611e4e57611e4d611a4d565b5b6000611e5c85828601611ca3565b9250506020611e6d85828601611e22565b9150509250929050565b600080fd5b600080fd5b7f4e487b7100000000000000000000000000000000000000000000000000000000600052604160045260246000fd5b611eb982611b61565b810181811067ffffffffffffffff82111715611ed857611ed7611e81565b5b80604052505050565b6000611eeb611a43565b9050611ef78282611eb0565b919050565b600067ffffffffffffffff821115611f1757611f16611e81565b5b611f2082611b61565b9050602081019050919050565b82818337600083830152505050565b6000611f4f611f4a84611efc565b611ee1565b905082815260208101848484011115611f6b57611f6a611e7c565b5b611f76848285611f2d565b509392505050565b600082601f830112611f9357611f92611e77565b5b8135611fa3848260208601611f3c565b91505092915050565b60008060008060808587031215611fc657611fc5611a4d565b5b6000611fd487828801611ca3565b9450506020611fe587828801611ca3565b9350506040611ff687828801611bee565b925050606085013567ffffffffffffffff81111561201757612016611a52565b5b61202387828801611f7e565b91505092959194509250565b600067ffffffffffffffff82111561204a57612049611e81565b5b602082029050602081019050919050565b600080fd5b600061207361206e8461202f565b611ee1565b905080838252602082019050602084028301858111156120965761209561205b565b5b835b818110156120bf57806120ab8882611ca3565b845260208401935050602081019050612098565b5050509392505050565b600082601f8301126120de576120dd611e77565b5b81356120ee848260208601612060565b91505092915050565b600067ffffffffffffffff82111561211257612111611e81565b5b602082029050602081019050919050565b6000612136612131846120f7565b611ee1565b905080838252602082019050602084028301858111156121595761215861205b565b5b835b81811015612182578061216e8882611bee565b84526020840193505060208101905061215b565b5050509392505050565b600082601f8301126121a1576121a0611e77565b5b81356121b1848260208601612123565b91505092915050565b6000806000606084860312156121d3576121d2611a4d565b5b600084013567ffffffffffffffff8111156121f1576121f0611a52565b5b6121fd868287016120c9565b935050602084013567ffffffffffffffff81111561221e5761221d611a52565b5b61222a868287016120c9565b925050604084013567ffffffffffffffff81111561224b5761224a611a52565b5b6122578682870161218c565b9150509250925092565b6000806040838503121561227857612277611a4d565b5b600061228685828601611ca3565b925050602061229785828601611ca3565b9150509250929050565b7f4e487b7100000000000000000000000000000000000000000000000000000000600052602260045260246000fd5b600060028204905060018216806122e857607f821691505b602082108114156122fc576122fb6122a1565b5b50919050565b7f4552433732313a20617070726f76656420717565727920666f72206e6f6e657860008201527f697374656e7420746f6b656e0000000000000000000000000000000000000000602082015250565b600061235e602c83611b1d565b915061236982612302565b604082019050919050565b6000602082019050818103600083015261238d81612351565b9050919050565b7f4552433732313a20617070726f76616c20746f2063757272656e74206f776e6560008201527f7200000000000000000000000000000000000000000000000000000000000000602082015250565b60006123f0602183611b1d565b91506123fb82612394565b604082019050919050565b6000602082019050818103600083015261241f816123e3565b9050919050565b7f4552433732313a20617070726f76652063616c6c6572206973206e6f74206f7760008201527f6e6572206e6f7220617070726f76656420666f7220616c6c0000000000000000602082015250565b6000612482603883611b1d565b915061248d82612426565b604082019050919050565b600060208201905081810360008301526124b181612475565b9050919050565b7f4552433732313a207472616e736665722063616c6c6572206973206e6f74206f60008201527f776e6572206e6f7220617070726f766564000000000000000000000000000000602082015250565b6000612514603183611b1d565b915061251f826124b8565b604082019050919050565b6000602082019050818103600083015261254381612507565b9050919050565b7f4e487b7100000000000000000000000000000000000000000000000000000000600052601160045260246000fd5b600061258482611bcd565b915061258f83611bcd565b9250817fffffffffffffffffffffffffffffffffffffffffffffffffffffffffffffffff04831182151516156125c8576125c761254a565b5b828202905092915050565b7f4e487b7100000000000000000000000000000000000000000000000000000000600052601260045260246000fd5b600061260d82611bcd565b915061261883611bcd565b925082612628576126276125d3565b5b828204905092915050565b7f4552433732313a206f776e657220717565727920666f72206e6f6e657869737460008201527f656e7420746f6b656e0000000000000000000000000000000000000000000000602082015250565b600061268f602983611b1d565b915061269a82612633565b604082019050919050565b600060208201905081810360008301526126be81612682565b9050919050565b7f4552433732313a2062616c616e636520717565727920666f7220746865207a6560008201527f726f206164647265737300000000000000000000000000000000000000000000602082015250565b6000612721602a83611b1d565b915061272c826126c5565b604082019050919050565b6000602082019050818103600083015261275081612714565b9050919050565b600061276282611bcd565b915061276d83611bcd565b9250827fffffffffffffffffffffffffffffffffffffffffffffffffffffffffffffffff038211156127a2576127a161254a565b5b828201905092915050565b7f4552433732314d657461646174613a2055524920717565727920666f72206e6f60008201527f6e6578697374656e7420746f6b656e0000000000000000000000000000000000602082015250565b6000612809602f83611b1d565b9150612814826127ad565b604082019050919050565b60006020820190508181036000830152612838816127fc565b9050919050565b600081905092915050565b600061285582611b12565b61285f818561283f565b935061286f818560208601611b2e565b80840191505092915050565b6000612887828561284a565b9150612893828461284a565b91508190509392505050565b7f4552433732313a20417272617973206c656e677468206d69736d617463680000600082015250565b60006128d5601e83611b1d565b91506128e08261289f565b602082019050919050565b60006020820190508181036000830152612904816128c8565b9050919050565b7f4e487b7100000000000000000000000000000000000000000000000000000000600052603260045260246000fd5b600061294582611bcd565b91507fffffffffffffffffffffffffffffffffffffffffffffffffffffffffffffffff8214156129785761297761254a565b5b600182019050919050565b7f4552433732313a206f70657261746f7220717565727920666f72206e6f6e657860008201527f697374656e7420746f6b656e0000000000000000000000000000000000000000602082015250565b60006129df602c83611b1d565b91506129ea82612983565b604082019050919050565b60006020820190508181036000830152612a0e816129d2565b9050919050565b7f4552433732313a207472616e73666572206f6620746f6b656e2074686174206960008201527f73206e6f74206f776e0000000000000000000000000000000000000000000000602082015250565b6000612a71602983611b1d565b9150612a7c82612a15565b604082019050919050565b60006020820190508181036000830152612aa081612a64565b9050919050565b7f4552433732313a207472616e7366657220746f20746865207a65726f2061646460008201527f7265737300000000000000000000000000000000000000000000000000000000602082015250565b6000612b03602483611b1d565b9150612b0e82612aa7565b604082019050919050565b60006020820190508181036000830152612b3281612af6565b9050919050565b6000612b4482611bcd565b9150612b4f83611bcd565b925082821015612b6257612b6161254a565b5b828203905092915050565b7f4552433732313a20617070726f766520746f2063616c6c657200000000000000600082015250565b6000612ba3601983611b1d565b9150612bae82612b6d565b602082019050919050565b60006020820190508181036000830152612bd281612b96565b9050919050565b7f4552433732313a207472616e7366657220746f206e6f6e20455243373231526560008201527f63656976657220696d706c656d656e7465720000000000000000000000000000602082015250565b6000612c35603283611b1d565b9150612c4082612bd9565b604082019050919050565b60006020820190508181036000830152612c6481612c28565b9050919050565b7f45524332393831526f79616c746965733a20546f6f2068696768000000000000600082015250565b6000612ca1601a83611b1d565b9150612cac82612c6b565b602082019050919050565b60006020820190508181036000830152612cd081612c94565b9050919050565b6000612ce282611bcd565b9150612ced83611bcd565b925082612cfd57612cfc6125d3565b5b828206905092915050565b600081519050919050565b600082825260208201905092915050565b6000612d2f82612d08565b612d398185612d13565b9350612d49818560208601611b2e565b612d5281611b61565b840191505092915050565b6000608082019050612d726000830187611c62565b612d7f6020830186611c62565b612d8c6040830185611d8b565b8181036060830152612d9e8184612d24565b905095945050505050565b600081519050612db881611a83565b92915050565b600060208284031215612dd457612dd3611a4d565b5b6000612de284828501612da9565b91505092915050565b7f4552433732313a206d696e7420746f20746865207a65726f2061646472657373600082015250565b6000612e21602083611b1d565b9150612e2c82612deb565b602082019050919050565b60006020820190508181036000830152612e5081612e14565b9050919050565b7f4552433732313a20746f6b656e20616c7265616479206d696e74656400000000600082015250565b6000612e8d601c83611b1d565b9150612e9882612e57565b602082019050919050565b60006020820190508181036000830152612ebc81612e80565b905091905056fea2646970667358221220cfe0e7c8e8d988eaf53ef5df6c4b70eff7bc0f5d034dc3186399b7d5e938c8de64736f6c634300080a0033",
  "immutableReferences": {},
  "source": "//SPDX-License-Identifier: MIT\npragma solidity ^0.8.0;\n\nimport \"@openzeppelin/contracts/token/ERC721/ERC721.sol\";\n\nimport \"./ERC2981PerTokenRoyalties.sol\";\n\n// 1) Mintar 3 tokens (Mint Batch)\n// 2) Valor maximo  10000wei\n// 3) Trade na OpenSea\n// 4) Estabelecer o royaltieValue 5000wei\n\n// 5) roy.approve(PAYMENT_PROCESSOR, amount)\n// 5) roy.approve(PAYMENT_PROCESSOR_OPENSEA, amount)\n\n// 5) roy.approve(ERC20, amount)\n\n// 6) roy.approve(OPENSEA, amount) => 7) roy.approve(ERC20, amount)\n// 8) erc20.approve(OPENSEA, amount)\n\n/// @title Example of ERC721 contract with ERC2981\n/// @author Simon Fremaux (@dievardump)\n/// @notice This is a mock, mint and mintBatch are not protected. Please do not use as-is in production\ncontract ERC721WithRoyalties is ERC721, ERC2981PerTokenRoyalties {\n    uint256 nextTokenId;\n\n    constructor() ERC721(\"Duplas\", \"DUPLA\") {}\n\n    /// @inheritdoc\tERC165\n    function supportsInterface(bytes4 interfaceId)\n        public\n        view\n        virtual\n        override(ERC721, ERC2981Base)\n        returns (bool)\n    {\n        return super.supportsInterface(interfaceId);\n    }\n\n    /// @notice Mint one token to `to`\n    /// @param to the recipient of the token\n    /// @param royaltyRecipient the recipient for royalties (if royaltyValue > 0)\n    /// @param royaltyValue the royalties asked for (EIP2981)\n    function mint(\n        address to,\n        address royaltyRecipient,\n        uint256 royaltyValue\n    ) external {\n        uint256 tokenId = nextTokenId;\n        _safeMint(to, tokenId, \"\");\n\n        if (royaltyValue > 0) {\n            _setTokenRoyalty(tokenId, royaltyRecipient, royaltyValue);\n        }\n\n        nextTokenId = tokenId + 1;\n    }\n\n    /// @notice Mint several tokens at once\n    /// @param recipients an array of recipients for each token\n    /// @param royaltyRecipients an array of recipients for royalties (if royaltyValues[i] > 0)\n    /// @param royaltyValues an array of royalties asked for (EIP2981)\n    function mintBatch(\n        address[] memory recipients,\n        address[] memory royaltyRecipients,\n        uint256[] memory royaltyValues\n    ) external {\n        uint256 tokenId = nextTokenId;\n        require(\n            recipients.length == royaltyRecipients.length &&\n                recipients.length == royaltyValues.length,\n            \"ERC721: Arrays length mismatch\"\n        );\n\n        for (uint256 i; i < recipients.length; i++) {\n            _safeMint(recipients[i], tokenId, \"\");\n            if (royaltyValues[i] > 0) {\n                _setTokenRoyalty(\n                    tokenId,\n                    royaltyRecipients[i],\n                    royaltyValues[i]\n                );\n            }\n            tokenId++;\n        }\n\n        nextTokenId = tokenId;\n    }\n}\n",
  "sourcePath": "/home/fernando/Documentos/projetoStadium/contracts/ERC721WithRoyalties.sol",
  "compiler": {
    "name": "solc",
    "version": "0.8.10+commit.fc410830.Emscripten.clang"
  },
  "schemaVersion": "3.4.3",
  "updatedAt": "2021-12-09T12:03:06.482Z",
  "devdoc": {
    "author": "Simon Fremaux (@dievardump)",
    "kind": "dev",
    "methods": {
      "approve(address,uint256)": {
        "details": "See {IERC721-approve}."
      },
      "balanceOf(address)": {
        "details": "See {IERC721-balanceOf}."
      },
      "getApproved(uint256)": {
        "details": "See {IERC721-getApproved}."
      },
      "isApprovedForAll(address,address)": {
        "details": "See {IERC721-isApprovedForAll}."
      },
      "mint(address,address,uint256)": {
        "params": {
          "royaltyRecipient": "the recipient for royalties (if royaltyValue > 0)",
          "royaltyValue": "the royalties asked for (EIP2981)",
          "to": "the recipient of the token"
        }
      },
      "mintBatch(address[],address[],uint256[])": {
        "params": {
          "recipients": "an array of recipients for each token",
          "royaltyRecipients": "an array of recipients for royalties (if royaltyValues[i] > 0)",
          "royaltyValues": "an array of royalties asked for (EIP2981)"
        }
      },
      "name()": {
        "details": "See {IERC721Metadata-name}."
      },
      "ownerOf(uint256)": {
        "details": "See {IERC721-ownerOf}."
      },
      "royaltyInfo(uint256,uint256)": {
        "params": {
          "_tokenId": "- the NFT asset queried for royalty information",
          "_value": "- the sale price of the NFT asset specified by _tokenId"
        },
        "returns": {
          "receiver": "- address of who should be sent the royalty payment",
          "royaltyAmount": "- the royalty payment amount for value sale price"
        }
      },
      "safeTransferFrom(address,address,uint256)": {
        "details": "See {IERC721-safeTransferFrom}."
      },
      "safeTransferFrom(address,address,uint256,bytes)": {
        "details": "See {IERC721-safeTransferFrom}."
      },
      "setApprovalForAll(address,bool)": {
        "details": "See {IERC721-setApprovalForAll}."
      },
      "supportsInterface(bytes4)": {
        "details": "See {IERC165-supportsInterface}."
      },
      "symbol()": {
        "details": "See {IERC721Metadata-symbol}."
      },
      "tokenURI(uint256)": {
        "details": "See {IERC721Metadata-tokenURI}."
      },
      "transferFrom(address,address,uint256)": {
        "details": "See {IERC721-transferFrom}."
      }
    },
    "title": "Example of ERC721 contract with ERC2981",
    "version": 1
  },
  "userdoc": {
    "kind": "user",
    "methods": {
      "mint(address,address,uint256)": {
        "notice": "Mint one token to `to`"
      },
      "mintBatch(address[],address[],uint256[])": {
        "notice": "Mint several tokens at once"
      }
    },
    "notice": "This is a mock, mint and mintBatch are not protected. Please do not use as-is in production",
    "version": 1
  }
}