{
  "contractName": "nftWithRoyalties",
  "abi": [
    {
      "inputs": [],
      "stateMutability": "nonpayable",
      "type": "constructor"
    },
    {
      "anonymous": false,
      "inputs": [
        {
          "indexed": true,
          "internalType": "address",
          "name": "owner",
          "type": "address"
        },
        {
          "indexed": true,
          "internalType": "address",
          "name": "approved",
          "type": "address"
        },
        {
          "indexed": true,
          "internalType": "uint256",
          "name": "tokenId",
          "type": "uint256"
        }
      ],
      "name": "Approval",
      "type": "event"
    },
    {
      "anonymous": false,
      "inputs": [
        {
          "indexed": true,
          "internalType": "address",
          "name": "owner",
          "type": "address"
        },
        {
          "indexed": true,
          "internalType": "address",
          "name": "operator",
          "type": "address"
        },
        {
          "indexed": false,
          "internalType": "bool",
          "name": "approved",
          "type": "bool"
        }
      ],
      "name": "ApprovalForAll",
      "type": "event"
    },
    {
      "anonymous": false,
      "inputs": [
        {
          "indexed": true,
          "internalType": "address",
          "name": "previousOwner",
          "type": "address"
        },
        {
          "indexed": true,
          "internalType": "address",
          "name": "newOwner",
          "type": "address"
        }
      ],
      "name": "OwnershipTransferred",
      "type": "event"
    },
    {
      "anonymous": false,
      "inputs": [
        {
          "indexed": true,
          "internalType": "address",
          "name": "from",
          "type": "address"
        },
        {
          "indexed": true,
          "internalType": "address",
          "name": "to",
          "type": "address"
        },
        {
          "indexed": true,
          "internalType": "uint256",
          "name": "tokenId",
          "type": "uint256"
        }
      ],
      "name": "Transfer",
      "type": "event"
    },
    {
      "inputs": [
        {
          "internalType": "address",
          "name": "to",
          "type": "address"
        },
        {
          "internalType": "uint256",
          "name": "tokenId",
          "type": "uint256"
        }
      ],
      "name": "approve",
      "outputs": [],
      "stateMutability": "nonpayable",
      "type": "function"
    },
    {
      "inputs": [
        {
          "internalType": "address",
          "name": "owner",
          "type": "address"
        }
      ],
      "name": "balanceOf",
      "outputs": [
        {
          "internalType": "uint256",
          "name": "",
          "type": "uint256"
        }
      ],
      "stateMutability": "view",
      "type": "function",
      "constant": true
    },
    {
      "inputs": [],
      "name": "baseExtension",
      "outputs": [
        {
          "internalType": "string",
          "name": "",
          "type": "string"
        }
      ],
      "stateMutability": "view",
      "type": "function",
      "constant": true
    },
    {
      "inputs": [],
      "name": "baseURI",
      "outputs": [
        {
          "internalType": "string",
          "name": "",
          "type": "string"
        }
      ],
      "stateMutability": "view",
      "type": "function",
      "constant": true
    },
    {
      "inputs": [],
      "name": "category1Cost",
      "outputs": [
        {
          "internalType": "uint256",
          "name": "",
          "type": "uint256"
        }
      ],
      "stateMutability": "view",
      "type": "function",
      "constant": true
    },
    {
      "inputs": [],
      "name": "category1Supply",
      "outputs": [
        {
          "internalType": "uint256",
          "name": "",
          "type": "uint256"
        }
      ],
      "stateMutability": "view",
      "type": "function",
      "constant": true
    },
    {
      "inputs": [],
      "name": "category2Cost",
      "outputs": [
        {
          "internalType": "uint256",
          "name": "",
          "type": "uint256"
        }
      ],
      "stateMutability": "view",
      "type": "function",
      "constant": true
    },
    {
      "inputs": [],
      "name": "category2Supply",
      "outputs": [
        {
          "internalType": "uint256",
          "name": "",
          "type": "uint256"
        }
      ],
      "stateMutability": "view",
      "type": "function",
      "constant": true
    },
    {
      "inputs": [
        {
          "internalType": "uint256",
          "name": "tokenId",
          "type": "uint256"
        }
      ],
      "name": "getApproved",
      "outputs": [
        {
          "internalType": "address",
          "name": "",
          "type": "address"
        }
      ],
      "stateMutability": "view",
      "type": "function",
      "constant": true
    },
    {
      "inputs": [
        {
          "internalType": "address",
          "name": "owner",
          "type": "address"
        },
        {
          "internalType": "address",
          "name": "operator",
          "type": "address"
        }
      ],
      "name": "isApprovedForAll",
      "outputs": [
        {
          "internalType": "bool",
          "name": "",
          "type": "bool"
        }
      ],
      "stateMutability": "view",
      "type": "function",
      "constant": true
    },
    {
      "inputs": [],
      "name": "maxMintAmount",
      "outputs": [
        {
          "internalType": "uint256",
          "name": "",
          "type": "uint256"
        }
      ],
      "stateMutability": "view",
      "type": "function",
      "constant": true
    },
    {
      "inputs": [],
      "name": "maxSupply",
      "outputs": [
        {
          "internalType": "uint256",
          "name": "",
          "type": "uint256"
        }
      ],
      "stateMutability": "view",
      "type": "function",
      "constant": true
    },
    {
      "inputs": [],
      "name": "name",
      "outputs": [
        {
          "internalType": "string",
          "name": "",
          "type": "string"
        }
      ],
      "stateMutability": "view",
      "type": "function",
      "constant": true
    },
    {
      "inputs": [],
      "name": "owner",
      "outputs": [
        {
          "internalType": "address",
          "name": "",
          "type": "address"
        }
      ],
      "stateMutability": "view",
      "type": "function",
      "constant": true
    },
    {
      "inputs": [
        {
          "internalType": "uint256",
          "name": "tokenId",
          "type": "uint256"
        }
      ],
      "name": "ownerOf",
      "outputs": [
        {
          "internalType": "address",
          "name": "",
          "type": "address"
        }
      ],
      "stateMutability": "view",
      "type": "function",
      "constant": true
    },
    {
      "inputs": [],
      "name": "premiumCost",
      "outputs": [
        {
          "internalType": "uint256",
          "name": "",
          "type": "uint256"
        }
      ],
      "stateMutability": "view",
      "type": "function",
      "constant": true
    },
    {
      "inputs": [],
      "name": "premiumSupply",
      "outputs": [
        {
          "internalType": "uint256",
          "name": "",
          "type": "uint256"
        }
      ],
      "stateMutability": "view",
      "type": "function",
      "constant": true
    },
    {
      "inputs": [],
      "name": "renounceOwnership",
      "outputs": [],
      "stateMutability": "nonpayable",
      "type": "function"
    },
    {
      "inputs": [
        {
          "internalType": "uint256",
          "name": "tokenId",
          "type": "uint256"
        },
        {
          "internalType": "uint256",
          "name": "value",
          "type": "uint256"
        }
      ],
      "name": "royaltyInfo",
      "outputs": [
        {
          "internalType": "address",
          "name": "receiver",
          "type": "address"
        },
        {
          "internalType": "uint256",
          "name": "royaltyAmount",
          "type": "uint256"
        }
      ],
      "stateMutability": "view",
      "type": "function",
      "constant": true
    },
    {
      "inputs": [],
      "name": "royaltyRecipient",
      "outputs": [
        {
          "internalType": "address",
          "name": "",
          "type": "address"
        }
      ],
      "stateMutability": "view",
      "type": "function",
      "constant": true
    },
    {
      "inputs": [],
      "name": "royaltyValue",
      "outputs": [
        {
          "internalType": "uint256",
          "name": "",
          "type": "uint256"
        }
      ],
      "stateMutability": "view",
      "type": "function",
      "constant": true
    },
    {
      "inputs": [
        {
          "internalType": "address",
          "name": "from",
          "type": "address"
        },
        {
          "internalType": "address",
          "name": "to",
          "type": "address"
        },
        {
          "internalType": "uint256",
          "name": "tokenId",
          "type": "uint256"
        }
      ],
      "name": "safeTransferFrom",
      "outputs": [],
      "stateMutability": "nonpayable",
      "type": "function"
    },
    {
      "inputs": [
        {
          "internalType": "address",
          "name": "from",
          "type": "address"
        },
        {
          "internalType": "address",
          "name": "to",
          "type": "address"
        },
        {
          "internalType": "uint256",
          "name": "tokenId",
          "type": "uint256"
        },
        {
          "internalType": "bytes",
          "name": "_data",
          "type": "bytes"
        }
      ],
      "name": "safeTransferFrom",
      "outputs": [],
      "stateMutability": "nonpayable",
      "type": "function"
    },
    {
      "inputs": [
        {
          "internalType": "address",
          "name": "operator",
          "type": "address"
        },
        {
          "internalType": "bool",
          "name": "approved",
          "type": "bool"
        }
      ],
      "name": "setApprovalForAll",
      "outputs": [],
      "stateMutability": "nonpayable",
      "type": "function"
    },
    {
      "inputs": [],
      "name": "symbol",
      "outputs": [
        {
          "internalType": "string",
          "name": "",
          "type": "string"
        }
      ],
      "stateMutability": "view",
      "type": "function",
      "constant": true
    },
    {
      "inputs": [
        {
          "internalType": "uint256",
          "name": "index",
          "type": "uint256"
        }
      ],
      "name": "tokenByIndex",
      "outputs": [
        {
          "internalType": "uint256",
          "name": "",
          "type": "uint256"
        }
      ],
      "stateMutability": "view",
      "type": "function",
      "constant": true
    },
    {
      "inputs": [
        {
          "internalType": "address",
          "name": "owner",
          "type": "address"
        },
        {
          "internalType": "uint256",
          "name": "index",
          "type": "uint256"
        }
      ],
      "name": "tokenOfOwnerByIndex",
      "outputs": [
        {
          "internalType": "uint256",
          "name": "",
          "type": "uint256"
        }
      ],
      "stateMutability": "view",
      "type": "function",
      "constant": true
    },
    {
      "inputs": [],
      "name": "totalSupply",
      "outputs": [
        {
          "internalType": "uint256",
          "name": "",
          "type": "uint256"
        }
      ],
      "stateMutability": "view",
      "type": "function",
      "constant": true
    },
    {
      "inputs": [
        {
          "internalType": "address",
          "name": "from",
          "type": "address"
        },
        {
          "internalType": "address",
          "name": "to",
          "type": "address"
        },
        {
          "internalType": "uint256",
          "name": "tokenId",
          "type": "uint256"
        }
      ],
      "name": "transferFrom",
      "outputs": [],
      "stateMutability": "nonpayable",
      "type": "function"
    },
    {
      "inputs": [
        {
          "internalType": "address",
          "name": "newOwner",
          "type": "address"
        }
      ],
      "name": "transferOwnership",
      "outputs": [],
      "stateMutability": "nonpayable",
      "type": "function"
    },
    {
      "inputs": [],
      "name": "vipCost",
      "outputs": [
        {
          "internalType": "uint256",
          "name": "",
          "type": "uint256"
        }
      ],
      "stateMutability": "view",
      "type": "function",
      "constant": true
    },
    {
      "inputs": [],
      "name": "vipSupply",
      "outputs": [
        {
          "internalType": "uint256",
          "name": "",
          "type": "uint256"
        }
      ],
      "stateMutability": "view",
      "type": "function",
      "constant": true
    },
    {
      "inputs": [
        {
          "internalType": "bytes4",
          "name": "interfaceId",
          "type": "bytes4"
        }
      ],
      "name": "supportsInterface",
      "outputs": [
        {
          "internalType": "bool",
          "name": "",
          "type": "bool"
        }
      ],
      "stateMutability": "view",
      "type": "function",
      "constant": true
    },
    {
      "inputs": [
        {
          "internalType": "address",
          "name": "caller",
          "type": "address"
        },
        {
          "internalType": "uint256",
          "name": "_mintAmount",
          "type": "uint256"
        },
        {
          "internalType": "uint256[]",
          "name": "mytokenURI",
          "type": "uint256[]"
        },
        {
          "internalType": "uint256",
          "name": "_vipAmount",
          "type": "uint256"
        },
        {
          "internalType": "uint256",
          "name": "_premiumAmount",
          "type": "uint256"
        },
        {
          "internalType": "uint256",
          "name": "_category1Amount",
          "type": "uint256"
        },
        {
          "internalType": "uint256",
          "name": "_category2Amount",
          "type": "uint256"
        }
      ],
      "name": "mint",
      "outputs": [],
      "stateMutability": "nonpayable",
      "type": "function"
    },
    {
      "inputs": [
        {
          "internalType": "uint256",
          "name": "tokenId",
          "type": "uint256"
        }
      ],
      "name": "tokenURI",
      "outputs": [
        {
          "internalType": "string",
          "name": "",
          "type": "string"
        }
      ],
      "stateMutability": "view",
      "type": "function",
      "constant": true
    },
    {
      "inputs": [
        {
          "internalType": "address",
          "name": "_holder",
          "type": "address"
        }
      ],
      "name": "tokenURIsOfHolder",
      "outputs": [
        {
          "internalType": "uint256[]",
          "name": "",
          "type": "uint256[]"
        }
      ],
      "stateMutability": "view",
      "type": "function",
      "constant": true
    },
    {
      "inputs": [
        {
          "internalType": "address",
          "name": "_newRoyaltyRecipient",
          "type": "address"
        }
      ],
      "name": "setRoyaltyRecipient",
      "outputs": [],
      "stateMutability": "nonpayable",
      "type": "function"
    },
    {
      "inputs": [
        {
          "internalType": "uint256",
          "name": "_newRoyaltyValue",
          "type": "uint256"
        }
      ],
      "name": "setRoyaltyValue",
      "outputs": [],
      "stateMutability": "nonpayable",
      "type": "function"
    },
    {
      "inputs": [
        {
          "internalType": "uint256",
          "name": "_newmaxSupply",
          "type": "uint256"
        }
      ],
      "name": "setmaxSupply",
      "outputs": [],
      "stateMutability": "nonpayable",
      "type": "function"
    },
    {
      "inputs": [
        {
          "internalType": "uint256",
          "name": "_newVipCost",
          "type": "uint256"
        }
      ],
      "name": "setVipCost",
      "outputs": [],
      "stateMutability": "nonpayable",
      "type": "function"
    },
    {
      "inputs": [
        {
          "internalType": "uint256",
          "name": "_newPremiumCost",
          "type": "uint256"
        }
      ],
      "name": "setPremiumCost",
      "outputs": [],
      "stateMutability": "nonpayable",
      "type": "function"
    },
    {
      "inputs": [
        {
          "internalType": "uint256",
          "name": "_newCategory1Cost",
          "type": "uint256"
        }
      ],
      "name": "setCategory1Cost",
      "outputs": [],
      "stateMutability": "nonpayable",
      "type": "function"
    },
    {
      "inputs": [
        {
          "internalType": "uint256",
          "name": "_newCategory2Cost",
          "type": "uint256"
        }
      ],
      "name": "setCategory2Cost",
      "outputs": [],
      "stateMutability": "nonpayable",
      "type": "function"
    },
    {
      "inputs": [
        {
          "internalType": "uint256",
          "name": "_newmaxMintAmount",
          "type": "uint256"
        }
      ],
      "name": "setmaxMintAmount",
      "outputs": [],
      "stateMutability": "nonpayable",
      "type": "function"
    },
    {
      "inputs": [
        {
          "internalType": "string",
          "name": "_newBaseURI",
          "type": "string"
        }
      ],
      "name": "setBaseURI",
      "outputs": [],
      "stateMutability": "nonpayable",
      "type": "function"
    },
    {
      "inputs": [
        {
          "internalType": "string",
          "name": "_newBaseExtension",
          "type": "string"
        }
      ],
      "name": "setBaseExtension",
      "outputs": [],
      "stateMutability": "nonpayable",
      "type": "function"
    },
    {
      "inputs": [],
      "name": "withdraw",
      "outputs": [],
      "stateMutability": "payable",
      "type": "function",
      "payable": true
    }
  ],
  "bytecode": "0x6080604052612710600e556101f4600f556105dc601055610bb8601155611388601255662386f26fc1000060135566038d7ea4c68000601455655af3107a40006015556509184e72a000601655603260175560405180606001604052806036815260200162005a1a60369139601890805190602001906200008292919062000279565b506040518060400160405280600581526020017f2e6a736f6e00000000000000000000000000000000000000000000000000000081525060199080519060200190620000d092919062000279565b506103e8601b55348015620000e457600080fd5b506040518060400160405280600781526020017f5374616469756d000000000000000000000000000000000000000000000000008152506040518060400160405280600381526020017f535444000000000000000000000000000000000000000000000000000000000081525081600090805190602001906200016992919062000279565b5080600190805190602001906200018292919062000279565b505050620001a562000199620001ab60201b60201c565b620001b360201b60201c565b6200038e565b600033905090565b6000600760009054906101000a900473ffffffffffffffffffffffffffffffffffffffff16905081600760006101000a81548173ffffffffffffffffffffffffffffffffffffffff021916908373ffffffffffffffffffffffffffffffffffffffff1602179055508173ffffffffffffffffffffffffffffffffffffffff168173ffffffffffffffffffffffffffffffffffffffff167f8be0079c531659141344cd1fd0a4f28419497f9722a3daafe3b4186f6b6457e060405160405180910390a35050565b828054620002879062000358565b90600052602060002090601f016020900481019282620002ab5760008555620002f7565b82601f10620002c657805160ff1916838001178555620002f7565b82800160010185558215620002f7579182015b82811115620002f6578251825591602001919060010190620002d9565b5b5090506200030691906200030a565b5090565b5b80821115620003255760008160009055506001016200030b565b5090565b7f4e487b7100000000000000000000000000000000000000000000000000000000600052602260045260246000fd5b600060028204905060018216806200037157607f821691505b6020821081141562000388576200038762000329565b5b50919050565b61567c806200039e6000396000f3fe6080604052600436106102885760003560e01c80636c0360eb1161015a578063b88d4fde116100c1578063d5abeb011161007a578063d5abeb01146109c4578063d83880a3146109ef578063da3ef23f14610a18578063e985e9c514610a41578063f2fde38b14610a7e578063f6e3a1dc14610aa757610288565b8063b88d4fde146108b4578063c6682862146108dd578063c7b2231814610908578063c87b56dd14610933578063c9ee763e14610970578063d5095dbb1461099b57610288565b80638da5cb5b116101135780638da5cb5b146107b457806391eb160e146107df57806395d89b411461080a5780639b2573ee14610835578063a214deb714610860578063a22cb4651461088b57610288565b80636c0360eb146106a65780636dd10de0146106d157806370a08231146106fa578063715018a6146107375780637977e9181461074e5780637f00c7a61461078b57610288565b80632f745c59116101fe5780635531940e116101b75780635531940e1461059857806355f804b3146105c35780635791b7c5146105ec5780635fc20588146106155780636352211e146106405780636881a0771461067d57610288565b80632f745c59146104975780633ccfd60b146104d457806341e42f30146104de57806342842e0e146105075780634c00de82146105305780634f6ccce71461055b57610288565b806318160ddd1161025057806318160ddd14610386578063228025e8146103b157806322911e24146103da578063239c70ae1461040557806323b872dd146104305780632a55205a1461045957610288565b806301ffc9a71461028d57806306fdde03146102ca578063081812fc146102f5578063095ea7b3146103325780630f1c5e401461035b575b600080fd5b34801561029957600080fd5b506102b460048036038101906102af919061389a565b610ad0565b6040516102c191906138e2565b60405180910390f35b3480156102d657600080fd5b506102df610ae2565b6040516102ec9190613996565b60405180910390f35b34801561030157600080fd5b5061031c600480360381019061031791906139ee565b610b74565b6040516103299190613a5c565b60405180910390f35b34801561033e57600080fd5b5061035960048036038101906103549190613aa3565b610bf9565b005b34801561036757600080fd5b50610370610d11565b60405161037d9190613af2565b60405180910390f35b34801561039257600080fd5b5061039b610d17565b6040516103a89190613af2565b60405180910390f35b3480156103bd57600080fd5b506103d860048036038101906103d391906139ee565b610d24565b005b3480156103e657600080fd5b506103ef610df4565b6040516103fc9190613af2565b60405180910390f35b34801561041157600080fd5b5061041a610dfa565b6040516104279190613af2565b60405180910390f35b34801561043c57600080fd5b5061045760048036038101906104529190613b0d565b610e00565b005b34801561046557600080fd5b50610480600480360381019061047b9190613b60565b610e60565b60405161048e929190613ba0565b60405180910390f35b3480156104a357600080fd5b506104be60048036038101906104b99190613aa3565b610f31565b6040516104cb9190613af2565b60405180910390f35b6104dc610fd6565b005b3480156104ea57600080fd5b5061050560048036038101906105009190613bc9565b6110d2565b005b34801561051357600080fd5b5061052e60048036038101906105299190613b0d565b611192565b005b34801561053c57600080fd5b506105456111b2565b6040516105529190613a5c565b60405180910390f35b34801561056757600080fd5b50610582600480360381019061057d91906139ee565b6111d8565b60405161058f9190613af2565b60405180910390f35b3480156105a457600080fd5b506105ad611249565b6040516105ba9190613af2565b60405180910390f35b3480156105cf57600080fd5b506105ea60048036038101906105e59190613d2b565b61124f565b005b3480156105f857600080fd5b50610613600480360381019061060e91906139ee565b6112e5565b005b34801561062157600080fd5b5061062a6113af565b6040516106379190613af2565b60405180910390f35b34801561064c57600080fd5b50610667600480360381019061066291906139ee565b6113b5565b6040516106749190613a5c565b60405180910390f35b34801561068957600080fd5b506106a4600480360381019061069f91906139ee565b611467565b005b3480156106b257600080fd5b506106bb6114ed565b6040516106c89190613996565b60405180910390f35b3480156106dd57600080fd5b506106f860048036038101906106f391906139ee565b61157b565b005b34801561070657600080fd5b50610721600480360381019061071c9190613bc9565b611645565b60405161072e9190613af2565b60405180910390f35b34801561074357600080fd5b5061074c6116fd565b005b34801561075a57600080fd5b5061077560048036038101906107709190613bc9565b611785565b6040516107829190613e32565b60405180910390f35b34801561079757600080fd5b506107b260048036038101906107ad91906139ee565b611833565b005b3480156107c057600080fd5b506107c96118fc565b6040516107d69190613a5c565b60405180910390f35b3480156107eb57600080fd5b506107f4611926565b6040516108019190613af2565b60405180910390f35b34801561081657600080fd5b5061081f61192c565b60405161082c9190613996565b60405180910390f35b34801561084157600080fd5b5061084a6119be565b6040516108579190613af2565b60405180910390f35b34801561086c57600080fd5b506108756119c4565b6040516108829190613af2565b60405180910390f35b34801561089757600080fd5b506108b260048036038101906108ad9190613e80565b6119ca565b005b3480156108c057600080fd5b506108db60048036038101906108d69190613f61565b6119e0565b005b3480156108e957600080fd5b506108f2611a42565b6040516108ff9190613996565b60405180910390f35b34801561091457600080fd5b5061091d611ad0565b60405161092a9190613af2565b60405180910390f35b34801561093f57600080fd5b5061095a600480360381019061095591906139ee565b611ad6565b6040516109679190613996565b60405180910390f35b34801561097c57600080fd5b50610985611b8a565b6040516109929190613af2565b60405180910390f35b3480156109a757600080fd5b506109c260048036038101906109bd91906140ac565b611b90565b005b3480156109d057600080fd5b506109d9611f43565b6040516109e69190613af2565b60405180910390f35b3480156109fb57600080fd5b50610a166004803603810190610a1191906139ee565b611f49565b005b348015610a2457600080fd5b50610a3f6004803603810190610a3a9190613d2b565b612013565b005b348015610a4d57600080fd5b50610a686004803603810190610a63919061416a565b6120a9565b604051610a7591906138e2565b60405180910390f35b348015610a8a57600080fd5b50610aa56004803603810190610aa09190613bc9565b61213d565b005b348015610ab357600080fd5b50610ace6004803603810190610ac991906139ee565b612235565b005b6000610adb826122ff565b9050919050565b606060008054610af1906141d9565b80601f0160208091040260200160405190810160405280929190818152602001828054610b1d906141d9565b8015610b6a5780601f10610b3f57610100808354040283529160200191610b6a565b820191906000526020600020905b815481529060010190602001808311610b4d57829003601f168201915b5050505050905090565b6000610b7f82612379565b610bbe576040517f08c379a0000000000000000000000000000000000000000000000000000000008152600401610bb59061427d565b60405180910390fd5b6004600083815260200190815260200160002060009054906101000a900473ffffffffffffffffffffffffffffffffffffffff169050919050565b6000610c04826113b5565b90508073ffffffffffffffffffffffffffffffffffffffff168373ffffffffffffffffffffffffffffffffffffffff161415610c75576040517f08c379a0000000000000000000000000000000000000000000000000000000008152600401610c6c9061430f565b60405180910390fd5b8073ffffffffffffffffffffffffffffffffffffffff16610c946123e5565b73ffffffffffffffffffffffffffffffffffffffff161480610cc35750610cc281610cbd6123e5565b6120a9565b5b610d02576040517f08c379a0000000000000000000000000000000000000000000000000000000008152600401610cf9906143a1565b60405180910390fd5b610d0c83836123ed565b505050565b60145481565b6000600a80549050905090565b610d2c6123e5565b73ffffffffffffffffffffffffffffffffffffffff16610d4a6118fc565b73ffffffffffffffffffffffffffffffffffffffff1614610da0576040517f08c379a0000000000000000000000000000000000000000000000000000000008152600401610d979061440d565b60405180910390fd5b610da8610d17565b811015610dea576040517f08c379a0000000000000000000000000000000000000000000000000000000008152600401610de190614479565b60405180910390fd5b80600e8190555050565b60125481565b60175481565b610e11610e0b6123e5565b826124a6565b610e50576040517f08c379a0000000000000000000000000000000000000000000000000000000008152600401610e479061450b565b60405180910390fd5b610e5b838383612584565b505050565b6000806000600c60008681526020019081526020016000206040518060400160405290816000820160009054906101000a900473ffffffffffffffffffffffffffffffffffffffff1673ffffffffffffffffffffffffffffffffffffffff1673ffffffffffffffffffffffffffffffffffffffff1681526020016000820160149054906101000a900462ffffff1662ffffff1662ffffff1681525050905080600001519250612710816020015162ffffff1685610f1d919061455a565b610f2791906145e3565b9150509250929050565b6000610f3c83611645565b8210610f7d576040517f08c379a0000000000000000000000000000000000000000000000000000000008152600401610f7490614686565b60405180910390fd5b600860008473ffffffffffffffffffffffffffffffffffffffff1673ffffffffffffffffffffffffffffffffffffffff168152602001908152602001600020600083815260200190815260200160002054905092915050565b610fde6123e5565b73ffffffffffffffffffffffffffffffffffffffff16610ffc6118fc565b73ffffffffffffffffffffffffffffffffffffffff1614611052576040517f08c379a00000000000000000000000000000000000000000000000000000000081526004016110499061440d565b60405180910390fd5b600061105c6118fc565b73ffffffffffffffffffffffffffffffffffffffff164760405161107f906146d7565b60006040518083038185875af1925050503d80600081146110bc576040519150601f19603f3d011682016040523d82523d6000602084013e6110c1565b606091505b50509050806110cf57600080fd5b50565b6110da6123e5565b73ffffffffffffffffffffffffffffffffffffffff166110f86118fc565b73ffffffffffffffffffffffffffffffffffffffff161461114e576040517f08c379a00000000000000000000000000000000000000000000000000000000081526004016111459061440d565b60405180910390fd5b80601a60006101000a81548173ffffffffffffffffffffffffffffffffffffffff021916908373ffffffffffffffffffffffffffffffffffffffff16021790555050565b6111ad838383604051806020016040528060008152506119e0565b505050565b601a60009054906101000a900473ffffffffffffffffffffffffffffffffffffffff1681565b60006111e2610d17565b8210611223576040517f08c379a000000000000000000000000000000000000000000000000000000000815260040161121a9061475e565b60405180910390fd5b600a82815481106112375761123661477e565b5b90600052602060002001549050919050565b60135481565b6112576123e5565b73ffffffffffffffffffffffffffffffffffffffff166112756118fc565b73ffffffffffffffffffffffffffffffffffffffff16146112cb576040517f08c379a00000000000000000000000000000000000000000000000000000000081526004016112c29061440d565b60405180910390fd5b80601890805190602001906112e192919061378b565b5050565b6112ed6123e5565b73ffffffffffffffffffffffffffffffffffffffff1661130b6118fc565b73ffffffffffffffffffffffffffffffffffffffff1614611361576040517f08c379a00000000000000000000000000000000000000000000000000000000081526004016113589061440d565b60405180910390fd5b60008110156113a5576040517f08c379a000000000000000000000000000000000000000000000000000000000815260040161139c9061481f565b60405180910390fd5b8060148190555050565b601b5481565b6000806002600084815260200190815260200160002060009054906101000a900473ffffffffffffffffffffffffffffffffffffffff169050600073ffffffffffffffffffffffffffffffffffffffff168173ffffffffffffffffffffffffffffffffffffffff16141561145e576040517f08c379a0000000000000000000000000000000000000000000000000000000008152600401611455906148b1565b60405180910390fd5b80915050919050565b61146f6123e5565b73ffffffffffffffffffffffffffffffffffffffff1661148d6118fc565b73ffffffffffffffffffffffffffffffffffffffff16146114e3576040517f08c379a00000000000000000000000000000000000000000000000000000000081526004016114da9061440d565b60405180910390fd5b80601b8190555050565b601880546114fa906141d9565b80601f0160208091040260200160405190810160405280929190818152602001828054611526906141d9565b80156115735780601f1061154857610100808354040283529160200191611573565b820191906000526020600020905b81548152906001019060200180831161155657829003601f168201915b505050505081565b6115836123e5565b73ffffffffffffffffffffffffffffffffffffffff166115a16118fc565b73ffffffffffffffffffffffffffffffffffffffff16146115f7576040517f08c379a00000000000000000000000000000000000000000000000000000000081526004016115ee9061440d565b60405180910390fd5b600081101561163b576040517f08c379a00000000000000000000000000000000000000000000000000000000081526004016116329061481f565b60405180910390fd5b8060158190555050565b60008073ffffffffffffffffffffffffffffffffffffffff168273ffffffffffffffffffffffffffffffffffffffff1614156116b6576040517f08c379a00000000000000000000000000000000000000000000000000000000081526004016116ad90614943565b60405180910390fd5b600360008373ffffffffffffffffffffffffffffffffffffffff1673ffffffffffffffffffffffffffffffffffffffff168152602001908152602001600020549050919050565b6117056123e5565b73ffffffffffffffffffffffffffffffffffffffff166117236118fc565b73ffffffffffffffffffffffffffffffffffffffff1614611779576040517f08c379a00000000000000000000000000000000000000000000000000000000081526004016117709061440d565b60405180910390fd5b61178360006127e0565b565b6060600061179283611645565b905060008167ffffffffffffffff8111156117b0576117af613c00565b5b6040519080825280602002602001820160405280156117de5781602001602082028036833780820191505090505b50905060005b82811015611828576117f68582610f31565b8282815181106118095761180861477e565b5b602002602001018181525050808061182090614963565b9150506117e4565b508092505050919050565b61183b6123e5565b73ffffffffffffffffffffffffffffffffffffffff166118596118fc565b73ffffffffffffffffffffffffffffffffffffffff16146118af576040517f08c379a00000000000000000000000000000000000000000000000000000000081526004016118a69061440d565b60405180910390fd5b600081116118f2576040517f08c379a00000000000000000000000000000000000000000000000000000000081526004016118e9906149f8565b60405180910390fd5b8060178190555050565b6000600760009054906101000a900473ffffffffffffffffffffffffffffffffffffffff16905090565b60155481565b60606001805461193b906141d9565b80601f0160208091040260200160405190810160405280929190818152602001828054611967906141d9565b80156119b45780601f10611989576101008083540402835291602001916119b4565b820191906000526020600020905b81548152906001019060200180831161199757829003601f168201915b5050505050905090565b600f5481565b60115481565b6119dc6119d56123e5565b83836128a6565b5050565b6119f16119eb6123e5565b836124a6565b611a30576040517f08c379a0000000000000000000000000000000000000000000000000000000008152600401611a279061450b565b60405180910390fd5b611a3c84848484612a13565b50505050565b60198054611a4f906141d9565b80601f0160208091040260200160405190810160405280929190818152602001828054611a7b906141d9565b8015611ac85780601f10611a9d57610100808354040283529160200191611ac8565b820191906000526020600020905b815481529060010190602001808311611aab57829003601f168201915b505050505081565b60165481565b6060611ae182612379565b611b20576040517f08c379a0000000000000000000000000000000000000000000000000000000008152600401611b1790614a8a565b60405180910390fd5b6000611b2a612a6f565b90506000815111611b4a5760405180602001604052806000815250611b82565b80601c60008581526020019081526020016000206019604051602001611b7293929190614b7a565b6040516020818303038152906040525b915050919050565b60105481565b6000611b9a610d17565b9050601754871115611be1576040517f08c379a0000000000000000000000000000000000000000000000000000000008152600401611bd890614bf7565b60405180910390fd5b60008711611c24576040517f08c379a0000000000000000000000000000000000000000000000000000000008152600401611c1b90614c63565b60405180910390fd5b600e548782611c339190614c83565b1115611c74576040517f08c379a0000000000000000000000000000000000000000000000000000000008152600401611c6b90614d4b565b60405180910390fd5b600085600f54611c849190614d6b565b1015611cc5576040517f08c379a0000000000000000000000000000000000000000000000000000000008152600401611cbc90614e11565b60405180910390fd5b600084601054611cd59190614d6b565b1015611d16576040517f08c379a0000000000000000000000000000000000000000000000000000000008152600401611d0d90614ea3565b60405180910390fd5b600083601154611d269190614d6b565b1015611d67576040517f08c379a0000000000000000000000000000000000000000000000000000000008152600401611d5e90614f35565b60405180910390fd5b600082601254611d779190614d6b565b1015611db8576040517f08c379a0000000000000000000000000000000000000000000000000000000008152600401611daf90614fc7565b60405180910390fd5b84600f54611dc69190614d6b565b600f8190555083601054611dda9190614d6b565b60108190555082601154611dee9190614d6b565b60118190555081601254611e029190614d6b565b6012819055506000600190505b878111611f3857611e3b898284611e269190614c83565b60405180602001604052806000815250612b01565b611e7e8183611e4a9190614c83565b611e7989600185611e5b9190614d6b565b81518110611e6c57611e6b61477e565b5b6020026020010151612b5c565b612cbd565b611ead87600183611e8f9190614d6b565b81518110611ea057611e9f61477e565b5b6020026020010151612b5c565b601c60008385611ebd9190614c83565b81526020019081526020016000209080519060200190611ede92919061378b565b506000601b541115611f2557611f248183611ef99190614c83565b601a60009054906101000a900473ffffffffffffffffffffffffffffffffffffffff16601b54612d31565b5b8080611f3090614963565b915050611e0f565b505050505050505050565b600e5481565b611f516123e5565b73ffffffffffffffffffffffffffffffffffffffff16611f6f6118fc565b73ffffffffffffffffffffffffffffffffffffffff1614611fc5576040517f08c379a0000000000000000000000000000000000000000000000000000000008152600401611fbc9061440d565b60405180910390fd5b6000811015612009576040517f08c379a00000000000000000000000000000000000000000000000000000000081526004016120009061481f565b60405180910390fd5b8060168190555050565b61201b6123e5565b73ffffffffffffffffffffffffffffffffffffffff166120396118fc565b73ffffffffffffffffffffffffffffffffffffffff161461208f576040517f08c379a00000000000000000000000000000000000000000000000000000000081526004016120869061440d565b60405180910390fd5b80601990805190602001906120a592919061378b565b5050565b6000600560008473ffffffffffffffffffffffffffffffffffffffff1673ffffffffffffffffffffffffffffffffffffffff16815260200190815260200160002060008373ffffffffffffffffffffffffffffffffffffffff1673ffffffffffffffffffffffffffffffffffffffff16815260200190815260200160002060009054906101000a900460ff16905092915050565b6121456123e5565b73ffffffffffffffffffffffffffffffffffffffff166121636118fc565b73ffffffffffffffffffffffffffffffffffffffff16146121b9576040517f08c379a00000000000000000000000000000000000000000000000000000000081526004016121b09061440d565b60405180910390fd5b600073ffffffffffffffffffffffffffffffffffffffff168173ffffffffffffffffffffffffffffffffffffffff161415612229576040517f08c379a000000000000000000000000000000000000000000000000000000000815260040161222090615059565b60405180910390fd5b612232816127e0565b50565b61223d6123e5565b73ffffffffffffffffffffffffffffffffffffffff1661225b6118fc565b73ffffffffffffffffffffffffffffffffffffffff16146122b1576040517f08c379a00000000000000000000000000000000000000000000000000000000081526004016122a89061440d565b60405180910390fd5b60008110156122f5576040517f08c379a00000000000000000000000000000000000000000000000000000000081526004016122ec9061481f565b60405180910390fd5b8060138190555050565b60007f2a55205a000000000000000000000000000000000000000000000000000000007bffffffffffffffffffffffffffffffffffffffffffffffffffffffff1916827bffffffffffffffffffffffffffffffffffffffffffffffffffffffff19161480612372575061237182612e2d565b5b9050919050565b60008073ffffffffffffffffffffffffffffffffffffffff166002600084815260200190815260200160002060009054906101000a900473ffffffffffffffffffffffffffffffffffffffff1673ffffffffffffffffffffffffffffffffffffffff1614159050919050565b600033905090565b816004600083815260200190815260200160002060006101000a81548173ffffffffffffffffffffffffffffffffffffffff021916908373ffffffffffffffffffffffffffffffffffffffff160217905550808273ffffffffffffffffffffffffffffffffffffffff16612460836113b5565b73ffffffffffffffffffffffffffffffffffffffff167f8c5be1e5ebec7d5bd14f71427d1e84f3dd0314c0f7b2291e5b200ac8c7c3b92560405160405180910390a45050565b60006124b182612379565b6124f0576040517f08c379a00000000000000000000000000000000000000000000000000000000081526004016124e7906150eb565b60405180910390fd5b60006124fb836113b5565b90508073ffffffffffffffffffffffffffffffffffffffff168473ffffffffffffffffffffffffffffffffffffffff16148061256a57508373ffffffffffffffffffffffffffffffffffffffff1661255284610b74565b73ffffffffffffffffffffffffffffffffffffffff16145b8061257b575061257a81856120a9565b5b91505092915050565b8273ffffffffffffffffffffffffffffffffffffffff166125a4826113b5565b73ffffffffffffffffffffffffffffffffffffffff16146125fa576040517f08c379a00000000000000000000000000000000000000000000000000000000081526004016125f19061517d565b60405180910390fd5b600073ffffffffffffffffffffffffffffffffffffffff168273ffffffffffffffffffffffffffffffffffffffff16141561266a576040517f08c379a00000000000000000000000000000000000000000000000000000000081526004016126619061520f565b60405180910390fd5b612675838383612ea7565b6126806000826123ed565b6001600360008573ffffffffffffffffffffffffffffffffffffffff1673ffffffffffffffffffffffffffffffffffffffff16815260200190815260200160002060008282546126d09190614d6b565b925050819055506001600360008473ffffffffffffffffffffffffffffffffffffffff1673ffffffffffffffffffffffffffffffffffffffff16815260200190815260200160002060008282546127279190614c83565b92505081905550816002600083815260200190815260200160002060006101000a81548173ffffffffffffffffffffffffffffffffffffffff021916908373ffffffffffffffffffffffffffffffffffffffff160217905550808273ffffffffffffffffffffffffffffffffffffffff168473ffffffffffffffffffffffffffffffffffffffff167fddf252ad1be2c89b69c2b068fc378daa952ba7f163c4a11628f55a4df523b3ef60405160405180910390a4505050565b6000600760009054906101000a900473ffffffffffffffffffffffffffffffffffffffff16905081600760006101000a81548173ffffffffffffffffffffffffffffffffffffffff021916908373ffffffffffffffffffffffffffffffffffffffff1602179055508173ffffffffffffffffffffffffffffffffffffffff168173ffffffffffffffffffffffffffffffffffffffff167f8be0079c531659141344cd1fd0a4f28419497f9722a3daafe3b4186f6b6457e060405160405180910390a35050565b8173ffffffffffffffffffffffffffffffffffffffff168373ffffffffffffffffffffffffffffffffffffffff161415612915576040517f08c379a000000000000000000000000000000000000000000000000000000000815260040161290c9061527b565b60405180910390fd5b80600560008573ffffffffffffffffffffffffffffffffffffffff1673ffffffffffffffffffffffffffffffffffffffff16815260200190815260200160002060008473ffffffffffffffffffffffffffffffffffffffff1673ffffffffffffffffffffffffffffffffffffffff16815260200190815260200160002060006101000a81548160ff0219169083151502179055508173ffffffffffffffffffffffffffffffffffffffff168373ffffffffffffffffffffffffffffffffffffffff167f17307eab39ab6107e8899845ad3d59bd9653f200f220920489ca2b5937696c3183604051612a0691906138e2565b60405180910390a3505050565b612a1e848484612584565b612a2a84848484612eb7565b612a69576040517f08c379a0000000000000000000000000000000000000000000000000000000008152600401612a609061530d565b60405180910390fd5b50505050565b606060188054612a7e906141d9565b80601f0160208091040260200160405190810160405280929190818152602001828054612aaa906141d9565b8015612af75780601f10612acc57610100808354040283529160200191612af7565b820191906000526020600020905b815481529060010190602001808311612ada57829003601f168201915b5050505050905090565b612b0b838361303f565b612b186000848484612eb7565b612b57576040517f08c379a0000000000000000000000000000000000000000000000000000000008152600401612b4e9061530d565b60405180910390fd5b505050565b60606000821415612ba4576040518060400160405280600181526020017f30000000000000000000000000000000000000000000000000000000000000008152509050612cb8565b600082905060005b60008214612bd6578080612bbf90614963565b915050600a82612bcf91906145e3565b9150612bac565b60008167ffffffffffffffff811115612bf257612bf1613c00565b5b6040519080825280601f01601f191660200182016040528015612c245781602001600182028036833780820191505090505b5090505b60008514612cb157600182612c3d9190614d6b565b9150600a85612c4c919061532d565b6030612c589190614c83565b60f81b818381518110612c6e57612c6d61477e565b5b60200101907effffffffffffffffffffffffffffffffffffffffffffffffffffffffffffff1916908160001a905350600a85612caa91906145e3565b9450612c28565b8093505050505b919050565b612cc682612379565b612d05576040517f08c379a0000000000000000000000000000000000000000000000000000000008152600401612cfc906153d0565b60405180910390fd5b80600660008481526020019081526020016000209080519060200190612d2c92919061378b565b505050565b612710811115612d76576040517f08c379a0000000000000000000000000000000000000000000000000000000008152600401612d6d9061543c565b60405180910390fd5b60405180604001604052808373ffffffffffffffffffffffffffffffffffffffff1681526020018262ffffff16815250600c600085815260200190815260200160002060008201518160000160006101000a81548173ffffffffffffffffffffffffffffffffffffffff021916908373ffffffffffffffffffffffffffffffffffffffff16021790555060208201518160000160146101000a81548162ffffff021916908362ffffff160217905550905050505050565b60007f780e9d63000000000000000000000000000000000000000000000000000000007bffffffffffffffffffffffffffffffffffffffffffffffffffffffff1916827bffffffffffffffffffffffffffffffffffffffffffffffffffffffff19161480612ea05750612e9f8261320d565b5b9050919050565b612eb28383836132ef565b505050565b6000612ed88473ffffffffffffffffffffffffffffffffffffffff16613403565b15613032578373ffffffffffffffffffffffffffffffffffffffff1663150b7a02612f016123e5565b8786866040518563ffffffff1660e01b8152600401612f2394939291906154b1565b6020604051808303816000875af1925050508015612f5f57506040513d601f19601f82011682018060405250810190612f5c9190615512565b60015b612fe2573d8060008114612f8f576040519150601f19603f3d011682016040523d82523d6000602084013e612f94565b606091505b50600081511415612fda576040517f08c379a0000000000000000000000000000000000000000000000000000000008152600401612fd19061530d565b60405180910390fd5b805181602001fd5b63150b7a0260e01b7bffffffffffffffffffffffffffffffffffffffffffffffffffffffff1916817bffffffffffffffffffffffffffffffffffffffffffffffffffffffff191614915050613037565b600190505b949350505050565b600073ffffffffffffffffffffffffffffffffffffffff168273ffffffffffffffffffffffffffffffffffffffff1614156130af576040517f08c379a00000000000000000000000000000000000000000000000000000000081526004016130a69061558b565b60405180910390fd5b6130b881612379565b156130f8576040517f08c379a00000000000000000000000000000000000000000000000000000000081526004016130ef906155f7565b60405180910390fd5b61310460008383612ea7565b6001600360008473ffffffffffffffffffffffffffffffffffffffff1673ffffffffffffffffffffffffffffffffffffffff16815260200190815260200160002060008282546131549190614c83565b92505081905550816002600083815260200190815260200160002060006101000a81548173ffffffffffffffffffffffffffffffffffffffff021916908373ffffffffffffffffffffffffffffffffffffffff160217905550808273ffffffffffffffffffffffffffffffffffffffff16600073ffffffffffffffffffffffffffffffffffffffff167fddf252ad1be2c89b69c2b068fc378daa952ba7f163c4a11628f55a4df523b3ef60405160405180910390a45050565b60007f80ac58cd000000000000000000000000000000000000000000000000000000007bffffffffffffffffffffffffffffffffffffffffffffffffffffffff1916827bffffffffffffffffffffffffffffffffffffffffffffffffffffffff191614806132d857507f5b5e139f000000000000000000000000000000000000000000000000000000007bffffffffffffffffffffffffffffffffffffffffffffffffffffffff1916827bffffffffffffffffffffffffffffffffffffffffffffffffffffffff1916145b806132e857506132e782613416565b5b9050919050565b6132fa838383613480565b600073ffffffffffffffffffffffffffffffffffffffff168373ffffffffffffffffffffffffffffffffffffffff16141561333d5761333881613485565b61337c565b8173ffffffffffffffffffffffffffffffffffffffff168373ffffffffffffffffffffffffffffffffffffffff161461337b5761337a83826134ce565b5b5b600073ffffffffffffffffffffffffffffffffffffffff168273ffffffffffffffffffffffffffffffffffffffff1614156133bf576133ba8161363b565b6133fe565b8273ffffffffffffffffffffffffffffffffffffffff168273ffffffffffffffffffffffffffffffffffffffff16146133fd576133fc828261370c565b5b5b505050565b600080823b905060008111915050919050565b60007f01ffc9a7000000000000000000000000000000000000000000000000000000007bffffffffffffffffffffffffffffffffffffffffffffffffffffffff1916827bffffffffffffffffffffffffffffffffffffffffffffffffffffffff1916149050919050565b505050565b600a80549050600b600083815260200190815260200160002081905550600a81908060018154018082558091505060019003906000526020600020016000909190919091505550565b600060016134db84611645565b6134e59190614d6b565b90506000600960008481526020019081526020016000205490508181146135ca576000600860008673ffffffffffffffffffffffffffffffffffffffff1673ffffffffffffffffffffffffffffffffffffffff168152602001908152602001600020600084815260200190815260200160002054905080600860008773ffffffffffffffffffffffffffffffffffffffff1673ffffffffffffffffffffffffffffffffffffffff168152602001908152602001600020600084815260200190815260200160002081905550816009600083815260200190815260200160002081905550505b6009600084815260200190815260200160002060009055600860008573ffffffffffffffffffffffffffffffffffffffff1673ffffffffffffffffffffffffffffffffffffffff16815260200190815260200160002060008381526020019081526020016000206000905550505050565b60006001600a8054905061364f9190614d6b565b90506000600b60008481526020019081526020016000205490506000600a838154811061367f5761367e61477e565b5b9060005260206000200154905080600a83815481106136a1576136a061477e565b5b906000526020600020018190555081600b600083815260200190815260200160002081905550600b600085815260200190815260200160002060009055600a8054806136f0576136ef615617565b5b6001900381819060005260206000200160009055905550505050565b600061371783611645565b905081600860008573ffffffffffffffffffffffffffffffffffffffff1673ffffffffffffffffffffffffffffffffffffffff168152602001908152602001600020600083815260200190815260200160002081905550806009600084815260200190815260200160002081905550505050565b828054613797906141d9565b90600052602060002090601f0160209004810192826137b95760008555613800565b82601f106137d257805160ff1916838001178555613800565b82800160010185558215613800579182015b828111156137ff5782518255916020019190600101906137e4565b5b50905061380d9190613811565b5090565b5b8082111561382a576000816000905550600101613812565b5090565b6000604051905090565b600080fd5b600080fd5b60007fffffffff0000000000000000000000000000000000000000000000000000000082169050919050565b61387781613842565b811461388257600080fd5b50565b6000813590506138948161386e565b92915050565b6000602082840312156138b0576138af613838565b5b60006138be84828501613885565b91505092915050565b60008115159050919050565b6138dc816138c7565b82525050565b60006020820190506138f760008301846138d3565b92915050565b600081519050919050565b600082825260208201905092915050565b60005b8381101561393757808201518184015260208101905061391c565b83811115613946576000848401525b50505050565b6000601f19601f8301169050919050565b6000613968826138fd565b6139728185613908565b9350613982818560208601613919565b61398b8161394c565b840191505092915050565b600060208201905081810360008301526139b0818461395d565b905092915050565b6000819050919050565b6139cb816139b8565b81146139d657600080fd5b50565b6000813590506139e8816139c2565b92915050565b600060208284031215613a0457613a03613838565b5b6000613a12848285016139d9565b91505092915050565b600073ffffffffffffffffffffffffffffffffffffffff82169050919050565b6000613a4682613a1b565b9050919050565b613a5681613a3b565b82525050565b6000602082019050613a716000830184613a4d565b92915050565b613a8081613a3b565b8114613a8b57600080fd5b50565b600081359050613a9d81613a77565b92915050565b60008060408385031215613aba57613ab9613838565b5b6000613ac885828601613a8e565b9250506020613ad9858286016139d9565b9150509250929050565b613aec816139b8565b82525050565b6000602082019050613b076000830184613ae3565b92915050565b600080600060608486031215613b2657613b25613838565b5b6000613b3486828701613a8e565b9350506020613b4586828701613a8e565b9250506040613b56868287016139d9565b9150509250925092565b60008060408385031215613b7757613b76613838565b5b6000613b85858286016139d9565b9250506020613b96858286016139d9565b9150509250929050565b6000604082019050613bb56000830185613a4d565b613bc26020830184613ae3565b9392505050565b600060208284031215613bdf57613bde613838565b5b6000613bed84828501613a8e565b91505092915050565b600080fd5b600080fd5b7f4e487b7100000000000000000000000000000000000000000000000000000000600052604160045260246000fd5b613c388261394c565b810181811067ffffffffffffffff82111715613c5757613c56613c00565b5b80604052505050565b6000613c6a61382e565b9050613c768282613c2f565b919050565b600067ffffffffffffffff821115613c9657613c95613c00565b5b613c9f8261394c565b9050602081019050919050565b82818337600083830152505050565b6000613cce613cc984613c7b565b613c60565b905082815260208101848484011115613cea57613ce9613bfb565b5b613cf5848285613cac565b509392505050565b600082601f830112613d1257613d11613bf6565b5b8135613d22848260208601613cbb565b91505092915050565b600060208284031215613d4157613d40613838565b5b600082013567ffffffffffffffff811115613d5f57613d5e61383d565b5b613d6b84828501613cfd565b91505092915050565b600081519050919050565b600082825260208201905092915050565b6000819050602082019050919050565b613da9816139b8565b82525050565b6000613dbb8383613da0565b60208301905092915050565b6000602082019050919050565b6000613ddf82613d74565b613de98185613d7f565b9350613df483613d90565b8060005b83811015613e25578151613e0c8882613daf565b9750613e1783613dc7565b925050600181019050613df8565b5085935050505092915050565b60006020820190508181036000830152613e4c8184613dd4565b905092915050565b613e5d816138c7565b8114613e6857600080fd5b50565b600081359050613e7a81613e54565b92915050565b60008060408385031215613e9757613e96613838565b5b6000613ea585828601613a8e565b9250506020613eb685828601613e6b565b9150509250929050565b600067ffffffffffffffff821115613edb57613eda613c00565b5b613ee48261394c565b9050602081019050919050565b6000613f04613eff84613ec0565b613c60565b905082815260208101848484011115613f2057613f1f613bfb565b5b613f2b848285613cac565b509392505050565b600082601f830112613f4857613f47613bf6565b5b8135613f58848260208601613ef1565b91505092915050565b60008060008060808587031215613f7b57613f7a613838565b5b6000613f8987828801613a8e565b9450506020613f9a87828801613a8e565b9350506040613fab878288016139d9565b925050606085013567ffffffffffffffff811115613fcc57613fcb61383d565b5b613fd887828801613f33565b91505092959194509250565b600067ffffffffffffffff821115613fff57613ffe613c00565b5b602082029050602081019050919050565b600080fd5b600061402861402384613fe4565b613c60565b9050808382526020820190506020840283018581111561404b5761404a614010565b5b835b81811015614074578061406088826139d9565b84526020840193505060208101905061404d565b5050509392505050565b600082601f83011261409357614092613bf6565b5b81356140a3848260208601614015565b91505092915050565b600080600080600080600060e0888a0312156140cb576140ca613838565b5b60006140d98a828b01613a8e565b97505060206140ea8a828b016139d9565b965050604088013567ffffffffffffffff81111561410b5761410a61383d565b5b6141178a828b0161407e565b95505060606141288a828b016139d9565b94505060806141398a828b016139d9565b93505060a061414a8a828b016139d9565b92505060c061415b8a828b016139d9565b91505092959891949750929550565b6000806040838503121561418157614180613838565b5b600061418f85828601613a8e565b92505060206141a085828601613a8e565b9150509250929050565b7f4e487b7100000000000000000000000000000000000000000000000000000000600052602260045260246000fd5b600060028204905060018216806141f157607f821691505b60208210811415614205576142046141aa565b5b50919050565b7f4552433732313a20617070726f76656420717565727920666f72206e6f6e657860008201527f697374656e7420746f6b656e0000000000000000000000000000000000000000602082015250565b6000614267602c83613908565b91506142728261420b565b604082019050919050565b600060208201905081810360008301526142968161425a565b9050919050565b7f4552433732313a20617070726f76616c20746f2063757272656e74206f776e6560008201527f7200000000000000000000000000000000000000000000000000000000000000602082015250565b60006142f9602183613908565b91506143048261429d565b604082019050919050565b60006020820190508181036000830152614328816142ec565b9050919050565b7f4552433732313a20617070726f76652063616c6c6572206973206e6f74206f7760008201527f6e6572206e6f7220617070726f76656420666f7220616c6c0000000000000000602082015250565b600061438b603883613908565b91506143968261432f565b604082019050919050565b600060208201905081810360008301526143ba8161437e565b9050919050565b7f4f776e61626c653a2063616c6c6572206973206e6f7420746865206f776e6572600082015250565b60006143f7602083613908565b9150614402826143c1565b602082019050919050565b60006020820190508181036000830152614426816143ea565b9050919050565b7f54686520546f74616c20537570706c7920697320477265617465720000000000600082015250565b6000614463601b83613908565b915061446e8261442d565b602082019050919050565b6000602082019050818103600083015261449281614456565b9050919050565b7f4552433732313a207472616e736665722063616c6c6572206973206e6f74206f60008201527f776e6572206e6f7220617070726f766564000000000000000000000000000000602082015250565b60006144f5603183613908565b915061450082614499565b604082019050919050565b60006020820190508181036000830152614524816144e8565b9050919050565b7f4e487b7100000000000000000000000000000000000000000000000000000000600052601160045260246000fd5b6000614565826139b8565b9150614570836139b8565b9250817fffffffffffffffffffffffffffffffffffffffffffffffffffffffffffffffff04831182151516156145a9576145a861452b565b5b828202905092915050565b7f4e487b7100000000000000000000000000000000000000000000000000000000600052601260045260246000fd5b60006145ee826139b8565b91506145f9836139b8565b925082614609576146086145b4565b5b828204905092915050565b7f455243373231456e756d657261626c653a206f776e657220696e646578206f7560008201527f74206f6620626f756e6473000000000000000000000000000000000000000000602082015250565b6000614670602b83613908565b915061467b82614614565b604082019050919050565b6000602082019050818103600083015261469f81614663565b9050919050565b600081905092915050565b50565b60006146c16000836146a6565b91506146cc826146b1565b600082019050919050565b60006146e2826146b4565b9150819050919050565b7f455243373231456e756d657261626c653a20676c6f62616c20696e646578206f60008201527f7574206f6620626f756e64730000000000000000000000000000000000000000602082015250565b6000614748602c83613908565b9150614753826146ec565b604082019050919050565b600060208201905081810360008301526147778161473b565b9050919050565b7f4e487b7100000000000000000000000000000000000000000000000000000000600052603260045260246000fd5b7f53686f756c642062652067726561746572206f7220657175616c207468616e2060008201527f7a65726f00000000000000000000000000000000000000000000000000000000602082015250565b6000614809602483613908565b9150614814826147ad565b604082019050919050565b60006020820190508181036000830152614838816147fc565b9050919050565b7f4552433732313a206f776e657220717565727920666f72206e6f6e657869737460008201527f656e7420746f6b656e0000000000000000000000000000000000000000000000602082015250565b600061489b602983613908565b91506148a68261483f565b604082019050919050565b600060208201905081810360008301526148ca8161488e565b9050919050565b7f4552433732313a2062616c616e636520717565727920666f7220746865207a6560008201527f726f206164647265737300000000000000000000000000000000000000000000602082015250565b600061492d602a83613908565b9150614938826148d1565b604082019050919050565b6000602082019050818103600083015261495c81614920565b9050919050565b600061496e826139b8565b91507fffffffffffffffffffffffffffffffffffffffffffffffffffffffffffffffff8214156149a1576149a061452b565b5b600182019050919050565b7f53686f756c642062652067726561746572207468616e207a65726f0000000000600082015250565b60006149e2601b83613908565b91506149ed826149ac565b602082019050919050565b60006020820190508181036000830152614a11816149d5565b9050919050565b7f4552433732314d657461646174613a2055524920717565727920666f72206e6f60008201527f6e6578697374656e7420746f6b656e0000000000000000000000000000000000602082015250565b6000614a74602f83613908565b9150614a7f82614a18565b604082019050919050565b60006020820190508181036000830152614aa381614a67565b9050919050565b600081905092915050565b6000614ac0826138fd565b614aca8185614aaa565b9350614ada818560208601613919565b80840191505092915050565b60008190508160005260206000209050919050565b60008154614b08816141d9565b614b128186614aaa565b94506001821660008114614b2d5760018114614b3e57614b71565b60ff19831686528186019350614b71565b614b4785614ae6565b60005b83811015614b6957815481890152600182019150602081019050614b4a565b838801955050505b50505092915050565b6000614b868286614ab5565b9150614b928285614afb565b9150614b9e8284614afb565b9150819050949350505050565b7f45786365656473204d6178696d756d204d696e7420416d6f756e740000000000600082015250565b6000614be1601b83613908565b9150614bec82614bab565b602082019050919050565b60006020820190508181036000830152614c1081614bd4565b9050919050565b7f4e65656420746f206d696e74206d6f7265207468616e207a65726f0000000000600082015250565b6000614c4d601b83613908565b9150614c5882614c17565b602082019050919050565b60006020820190508181036000830152614c7c81614c40565b9050919050565b6000614c8e826139b8565b9150614c99836139b8565b9250827fffffffffffffffffffffffffffffffffffffffffffffffffffffffffffffffff03821115614cce57614ccd61452b565b5b828201905092915050565b7f546865726520617265206e6f74204e46547320617661696c61626c6520746f2060008201527f6d696e7400000000000000000000000000000000000000000000000000000000602082015250565b6000614d35602483613908565b9150614d4082614cd9565b604082019050919050565b60006020820190508181036000830152614d6481614d28565b9050919050565b6000614d76826139b8565b9150614d81836139b8565b925082821015614d9457614d9361452b565b5b828203905092915050565b7f546865726520617265206e6f7420566970204e46547320617661696c61626c6560008201527f20746f206d696e74000000000000000000000000000000000000000000000000602082015250565b6000614dfb602883613908565b9150614e0682614d9f565b604082019050919050565b60006020820190508181036000830152614e2a81614dee565b9050919050565b7f546865726520617265206e6f74205072656d69756d204e46547320617661696c60008201527f61626c6520746f206d696e740000000000000000000000000000000000000000602082015250565b6000614e8d602c83613908565b9150614e9882614e31565b604082019050919050565b60006020820190508181036000830152614ebc81614e80565b9050919050565b7f546865726520617265206e6f742043617465676f72792031204e46547320617660008201527f61696c61626c6520746f206d696e740000000000000000000000000000000000602082015250565b6000614f1f602f83613908565b9150614f2a82614ec3565b604082019050919050565b60006020820190508181036000830152614f4e81614f12565b9050919050565b7f546865726520617265206e6f742043617465676f72792032204e46547320617660008201527f61696c61626c6520746f206d696e740000000000000000000000000000000000602082015250565b6000614fb1602f83613908565b9150614fbc82614f55565b604082019050919050565b60006020820190508181036000830152614fe081614fa4565b9050919050565b7f4f776e61626c653a206e6577206f776e657220697320746865207a65726f206160008201527f6464726573730000000000000000000000000000000000000000000000000000602082015250565b6000615043602683613908565b915061504e82614fe7565b604082019050919050565b6000602082019050818103600083015261507281615036565b9050919050565b7f4552433732313a206f70657261746f7220717565727920666f72206e6f6e657860008201527f697374656e7420746f6b656e0000000000000000000000000000000000000000602082015250565b60006150d5602c83613908565b91506150e082615079565b604082019050919050565b60006020820190508181036000830152615104816150c8565b9050919050565b7f4552433732313a207472616e73666572206f6620746f6b656e2074686174206960008201527f73206e6f74206f776e0000000000000000000000000000000000000000000000602082015250565b6000615167602983613908565b91506151728261510b565b604082019050919050565b600060208201905081810360008301526151968161515a565b9050919050565b7f4552433732313a207472616e7366657220746f20746865207a65726f2061646460008201527f7265737300000000000000000000000000000000000000000000000000000000602082015250565b60006151f9602483613908565b91506152048261519d565b604082019050919050565b60006020820190508181036000830152615228816151ec565b9050919050565b7f4552433732313a20617070726f766520746f2063616c6c657200000000000000600082015250565b6000615265601983613908565b91506152708261522f565b602082019050919050565b6000602082019050818103600083015261529481615258565b9050919050565b7f4552433732313a207472616e7366657220746f206e6f6e20455243373231526560008201527f63656976657220696d706c656d656e7465720000000000000000000000000000602082015250565b60006152f7603283613908565b91506153028261529b565b604082019050919050565b60006020820190508181036000830152615326816152ea565b9050919050565b6000615338826139b8565b9150615343836139b8565b925082615353576153526145b4565b5b828206905092915050565b7f45524337323155524953746f726167653a2055524920736574206f66206e6f6e60008201527f6578697374656e7420746f6b656e000000000000000000000000000000000000602082015250565b60006153ba602e83613908565b91506153c58261535e565b604082019050919050565b600060208201905081810360008301526153e9816153ad565b9050919050565b7f45524332393831526f79616c746965733a20546f6f2068696768000000000000600082015250565b6000615426601a83613908565b9150615431826153f0565b602082019050919050565b6000602082019050818103600083015261545581615419565b9050919050565b600081519050919050565b600082825260208201905092915050565b60006154838261545c565b61548d8185615467565b935061549d818560208601613919565b6154a68161394c565b840191505092915050565b60006080820190506154c66000830187613a4d565b6154d36020830186613a4d565b6154e06040830185613ae3565b81810360608301526154f28184615478565b905095945050505050565b60008151905061550c8161386e565b92915050565b60006020828403121561552857615527613838565b5b6000615536848285016154fd565b91505092915050565b7f4552433732313a206d696e7420746f20746865207a65726f2061646472657373600082015250565b6000615575602083613908565b91506155808261553f565b602082019050919050565b600060208201905081810360008301526155a481615568565b9050919050565b7f4552433732313a20746f6b656e20616c7265616479206d696e74656400000000600082015250565b60006155e1601c83613908565b91506155ec826155ab565b602082019050919050565b60006020820190508181036000830152615610816155d4565b9050919050565b7f4e487b7100000000000000000000000000000000000000000000000000000000600052603160045260246000fdfea26469706673582212206837b623c1ef3fcb1cb7ebabadb5333645e8457a78252f98b63d7d5aabcbb6ca64736f6c634300080a0033697066733a2f2f516d54423550646f57436a46336272614b69386d56764e466e385564334d704c56683379673564707048316171732f",
  "immutableReferences": {},
  "source": "//SPDX-License-Identifier: MIT\n\npragma solidity ^0.8.2;\n\nimport \"@openzeppelin/contracts/token/ERC721/extensions/ERC721Enumerable.sol\";\nimport \"@openzeppelin/contracts/access/Ownable.sol\";\nimport \"@openzeppelin/contracts/token/ERC721/extensions/ERC721URIStorage.sol\";\nimport \"@openzeppelin/contracts/utils/Counters.sol\";\nimport \"@openzeppelin/contracts/token/ERC721/extensions/IERC721Enumerable.sol\";\n\nimport \"@openzeppelin/contracts/token/ERC20/IERC20.sol\";\nimport \"./ERC2981PerTokenRoyalties.sol\";\n\ncontract nftWithRoyalties is\n    ERC721URIStorage,\n    Ownable,\n    ERC721Enumerable,\n    ERC2981PerTokenRoyalties\n{\n    uint256 nextTokenId;\n    using Strings for uint256;\n    using Counters for Counters.Counter;\n\n    uint256 public maxSupply = 10000;\n    //Supplies\n    uint256 public vipSupply = 500;\n    uint256 public premiumSupply = 1500;\n    uint256 public category1Supply = 3000;\n    uint256 public category2Supply = 5000;\n    //Costs\n    uint256 public vipCost = 0.01 ether;\n    uint256 public premiumCost = 0.001 ether;\n    uint256 public category1Cost = 0.0001 ether;\n    uint256 public category2Cost = 0.00001 ether;\n    uint256 public maxMintAmount = 50;\n    string public baseURI =\n        \"ipfs://QmTB5PdoWCjF3braKi8mVvNFn8Ud3MpLVh3yg5dppH1aqs/\";\n    string public baseExtension = \".json\";\n    //Royaltie Variables\n    address public royaltyRecipient;\n    uint256 public royaltyValue = 1000;\n\n    constructor() ERC721(\"Stadium\", \"STD\") {}\n\n    // ROYALTIE FUNCTIONS\n\n    /// @inheritdoc\tERC165\n    function supportsInterface(bytes4 interfaceId)\n        public\n        view\n        virtual\n        override(ERC721, ERC2981Base, ERC721Enumerable)\n        returns (bool)\n    {\n        return super.supportsInterface(interfaceId);\n    }\n\n    mapping(uint256 => string) tokenURIs;\n\n    /// @notice Mint one token to `caller`\n    /// @param caller the recipient of the token\n    function mint(\n        address caller,\n        uint256 _mintAmount,\n        uint256[] memory mytokenURI,\n        uint256 _vipAmount,\n        uint256 _premiumAmount,\n        uint256 _category1Amount,\n        uint256 _category2Amount\n    ) external {\n        uint256 supply = totalSupply();\n\n        //REQUIRES\n        require(_mintAmount <= maxMintAmount, \"Exceeds Maximum Mint Amount\");\n        require(_mintAmount > 0, \"Need to mint more than zero\");\n        require(\n            supply + _mintAmount <= maxSupply,\n            \"There are not NFTs available to mint\"\n        );\n        require(\n            vipSupply - _vipAmount >= 0,\n            \"There are not Vip NFTs available to mint\"\n        );\n        require(\n            premiumSupply - _premiumAmount >= 0,\n            \"There are not Premium NFTs available to mint\"\n        );\n        require(\n            category1Supply - _category1Amount >= 0,\n            \"There are not Category 1 NFTs available to mint\"\n        );\n        require(\n            category2Supply - _category2Amount >= 0,\n            \"There are not Category 2 NFTs available to mint\"\n        );\n\n        vipSupply = vipSupply - _vipAmount;\n        premiumSupply = premiumSupply - _premiumAmount;\n        category1Supply = category1Supply - _category1Amount;\n        category2Supply = category2Supply - _category2Amount;\n\n        for (uint256 i = 1; i <= _mintAmount; i++) {\n            _safeMint(caller, (supply + i), \"\");\n            _setTokenURI((supply + i), mytokenURI[i - 1].toString());\n            tokenURIs[supply + i] = mytokenURI[i - 1].toString();\n\n            if (royaltyValue > 0) {\n                _setTokenRoyalty((supply + i), royaltyRecipient, royaltyValue);\n            }\n        }\n    }\n\n    function tokenURI(uint256 tokenId)\n        public\n        view\n        virtual\n        override(ERC721, ERC721URIStorage)\n        returns (string memory)\n    {\n        require(\n            _exists(tokenId),\n            \"ERC721Metadata: URI query for nonexistent token\"\n        );\n\n        string memory currentBaseURI = _baseURI();\n        return\n            bytes(currentBaseURI).length > 0\n                ? string(\n                    abi.encodePacked(\n                        currentBaseURI,\n                        tokenURIs[tokenId],\n                        baseExtension\n                    )\n                )\n                : \"\";\n    }\n\n    function tokenURIsOfHolder(address _holder)\n        public\n        view\n        returns (uint256[] memory)\n    {\n        uint256 ownerTokenCount = balanceOf(_holder);\n        uint256[] memory URIs = new uint256[](ownerTokenCount);\n        for (uint256 i; i < ownerTokenCount; i++) {\n            //contando com que a uri  igual ao tokenId\n            URIs[i] = tokenOfOwnerByIndex(_holder, i);\n        }\n        return URIs;\n    }\n\n    // INTERNAL FUNCTIONS:\n\n    function _baseURI() internal view virtual override returns (string memory) {\n        return baseURI;\n    }\n\n    // ONLY OWNER FUNCTIONS:\n\n    function setRoyaltyRecipient(address _newRoyaltyRecipient)\n        public\n        onlyOwner\n    {\n        royaltyRecipient = _newRoyaltyRecipient;\n    }\n\n    function setRoyaltyValue(uint256 _newRoyaltyValue) public onlyOwner {\n        royaltyValue = _newRoyaltyValue;\n    }\n\n    function setmaxSupply(uint256 _newmaxSupply) public onlyOwner {\n        require(_newmaxSupply >= totalSupply(), \"The Total Supply is Greater\");\n        maxSupply = _newmaxSupply;\n    }\n\n    function setVipCost(uint256 _newVipCost) public onlyOwner {\n        require(_newVipCost >= 0, \"Should be greater or equal than zero\");\n        vipCost = _newVipCost;\n    }\n\n    function setPremiumCost(uint256 _newPremiumCost) public onlyOwner {\n        require(_newPremiumCost >= 0, \"Should be greater or equal than zero\");\n        premiumCost = _newPremiumCost;\n    }\n\n    function setCategory1Cost(uint256 _newCategory1Cost) public onlyOwner {\n        require(_newCategory1Cost >= 0, \"Should be greater or equal than zero\");\n        category1Cost = _newCategory1Cost;\n    }\n\n    function setCategory2Cost(uint256 _newCategory2Cost) public onlyOwner {\n        require(_newCategory2Cost >= 0, \"Should be greater or equal than zero\");\n        category2Cost = _newCategory2Cost;\n    }\n\n    function setmaxMintAmount(uint256 _newmaxMintAmount) public onlyOwner {\n        require(_newmaxMintAmount > 0, \"Should be greater than zero\");\n        maxMintAmount = _newmaxMintAmount;\n    }\n\n    function setBaseURI(string memory _newBaseURI) public onlyOwner {\n        baseURI = _newBaseURI;\n    }\n\n    function setBaseExtension(string memory _newBaseExtension)\n        public\n        onlyOwner\n    {\n        baseExtension = _newBaseExtension;\n    }\n\n    function withdraw() public payable onlyOwner {\n        (bool os, ) = payable(owner()).call{value: address(this).balance}(\"\");\n        require(os);\n    }\n\n    // FUNCTIONS are overrides required by Solidity.\n\n    function _beforeTokenTransfer(\n        address from,\n        address to,\n        uint256 tokenId\n    ) internal override(ERC721, ERC721Enumerable) {\n        super._beforeTokenTransfer(from, to, tokenId);\n    }\n\n    function _burn(uint256 tokenId)\n        internal\n        override(ERC721, ERC721URIStorage)\n        onlyOwner\n    {\n        super._burn(tokenId);\n    }\n}\n",
  "sourcePath": "/home/fernando/Documentos/projetoStadium/contracts/nftWithRoyalties.sol",
  "compiler": {
    "name": "solc",
    "version": "0.8.10+commit.fc410830.Emscripten.clang"
  },
  "schemaVersion": "3.4.3",
  "updatedAt": "2021-12-09T12:15:30.778Z",
  "networkType": "ethereum",
  "devdoc": {
    "kind": "dev",
    "methods": {
      "approve(address,uint256)": {
        "details": "See {IERC721-approve}."
      },
      "balanceOf(address)": {
        "details": "See {IERC721-balanceOf}."
      },
      "getApproved(uint256)": {
        "details": "See {IERC721-getApproved}."
      },
      "isApprovedForAll(address,address)": {
        "details": "See {IERC721-isApprovedForAll}."
      },
      "mint(address,uint256,uint256[],uint256,uint256,uint256,uint256)": {
        "params": {
          "caller": "the recipient of the token"
        }
      },
      "name()": {
        "details": "See {IERC721Metadata-name}."
      },
      "owner()": {
        "details": "Returns the address of the current owner."
      },
      "ownerOf(uint256)": {
        "details": "See {IERC721-ownerOf}."
      },
      "renounceOwnership()": {
        "details": "Leaves the contract without owner. It will not be possible to call `onlyOwner` functions anymore. Can only be called by the current owner. NOTE: Renouncing ownership will leave the contract without an owner, thereby removing any functionality that is only available to the owner."
      },
      "royaltyInfo(uint256,uint256)": {
        "params": {
          "_tokenId": "- the NFT asset queried for royalty information",
          "_value": "- the sale price of the NFT asset specified by _tokenId"
        },
        "returns": {
          "receiver": "- address of who should be sent the royalty payment",
          "royaltyAmount": "- the royalty payment amount for value sale price"
        }
      },
      "safeTransferFrom(address,address,uint256)": {
        "details": "See {IERC721-safeTransferFrom}."
      },
      "safeTransferFrom(address,address,uint256,bytes)": {
        "details": "See {IERC721-safeTransferFrom}."
      },
      "setApprovalForAll(address,bool)": {
        "details": "See {IERC721-setApprovalForAll}."
      },
      "supportsInterface(bytes4)": {
        "details": "See {IERC165-supportsInterface}."
      },
      "symbol()": {
        "details": "See {IERC721Metadata-symbol}."
      },
      "tokenByIndex(uint256)": {
        "details": "See {IERC721Enumerable-tokenByIndex}."
      },
      "tokenOfOwnerByIndex(address,uint256)": {
        "details": "See {IERC721Enumerable-tokenOfOwnerByIndex}."
      },
      "totalSupply()": {
        "details": "See {IERC721Enumerable-totalSupply}."
      },
      "transferFrom(address,address,uint256)": {
        "details": "See {IERC721-transferFrom}."
      },
      "transferOwnership(address)": {
        "details": "Transfers ownership of the contract to a new account (`newOwner`). Can only be called by the current owner."
      }
    },
    "version": 1
  },
  "userdoc": {
    "kind": "user",
    "methods": {
      "mint(address,uint256,uint256[],uint256,uint256,uint256,uint256)": {
        "notice": "Mint one token to `caller`"
      }
    },
    "version": 1
  }
}