{
  "contractName": "PaymentProcessor",
  "abi": [
    {
      "inputs": [
        {
          "internalType": "address",
          "name": "adminAddress",
          "type": "address"
        },
        {
          "internalType": "address",
          "name": "tokenAddress",
          "type": "address"
        }
      ],
      "stateMutability": "nonpayable",
      "type": "constructor"
    },
    {
      "anonymous": false,
      "inputs": [
        {
          "indexed": true,
          "internalType": "address",
          "name": "previousOwner",
          "type": "address"
        },
        {
          "indexed": true,
          "internalType": "address",
          "name": "newOwner",
          "type": "address"
        }
      ],
      "name": "OwnershipTransferred",
      "type": "event"
    },
    {
      "anonymous": false,
      "inputs": [
        {
          "indexed": false,
          "internalType": "address",
          "name": "payer",
          "type": "address"
        },
        {
          "indexed": false,
          "internalType": "uint256",
          "name": "amount",
          "type": "uint256"
        },
        {
          "indexed": false,
          "internalType": "uint256",
          "name": "paymentId",
          "type": "uint256"
        },
        {
          "indexed": false,
          "internalType": "uint256",
          "name": "date",
          "type": "uint256"
        }
      ],
      "name": "PaymentDone",
      "type": "event"
    },
    {
      "inputs": [],
      "name": "admin",
      "outputs": [
        {
          "internalType": "address",
          "name": "",
          "type": "address"
        }
      ],
      "stateMutability": "view",
      "type": "function",
      "constant": true
    },
    {
      "inputs": [],
      "name": "owner",
      "outputs": [
        {
          "internalType": "address",
          "name": "",
          "type": "address"
        }
      ],
      "stateMutability": "view",
      "type": "function",
      "constant": true
    },
    {
      "inputs": [],
      "name": "renounceOwnership",
      "outputs": [],
      "stateMutability": "nonpayable",
      "type": "function"
    },
    {
      "inputs": [],
      "name": "token",
      "outputs": [
        {
          "internalType": "contract IERC20",
          "name": "",
          "type": "address"
        }
      ],
      "stateMutability": "view",
      "type": "function",
      "constant": true
    },
    {
      "inputs": [
        {
          "internalType": "address",
          "name": "newOwner",
          "type": "address"
        }
      ],
      "name": "transferOwnership",
      "outputs": [],
      "stateMutability": "nonpayable",
      "type": "function"
    },
    {
      "inputs": [
        {
          "internalType": "uint256",
          "name": "amount",
          "type": "uint256"
        },
        {
          "internalType": "uint256",
          "name": "paymentId",
          "type": "uint256"
        }
      ],
      "name": "pay",
      "outputs": [],
      "stateMutability": "nonpayable",
      "type": "function"
    },
    {
      "inputs": [
        {
          "internalType": "address",
          "name": "_newAdmin",
          "type": "address"
        }
      ],
      "name": "setAdmin",
      "outputs": [],
      "stateMutability": "nonpayable",
      "type": "function"
    }
  ],
  "bytecode": "0x608060405234801561001057600080fd5b50604051610bf5380380610bf583398181016040528101906100329190610206565b61004e6100436100d760201b60201c565b6100df60201b60201c565b81600160006101000a81548173ffffffffffffffffffffffffffffffffffffffff021916908373ffffffffffffffffffffffffffffffffffffffff16021790555080600260006101000a81548173ffffffffffffffffffffffffffffffffffffffff021916908373ffffffffffffffffffffffffffffffffffffffff1602179055505050610246565b600033905090565b60008060009054906101000a900473ffffffffffffffffffffffffffffffffffffffff169050816000806101000a81548173ffffffffffffffffffffffffffffffffffffffff021916908373ffffffffffffffffffffffffffffffffffffffff1602179055508173ffffffffffffffffffffffffffffffffffffffff168173ffffffffffffffffffffffffffffffffffffffff167f8be0079c531659141344cd1fd0a4f28419497f9722a3daafe3b4186f6b6457e060405160405180910390a35050565b600080fd5b600073ffffffffffffffffffffffffffffffffffffffff82169050919050565b60006101d3826101a8565b9050919050565b6101e3816101c8565b81146101ee57600080fd5b50565b600081519050610200816101da565b92915050565b6000806040838503121561021d5761021c6101a3565b5b600061022b858286016101f1565b925050602061023c858286016101f1565b9150509250929050565b6109a0806102556000396000f3fe608060405234801561001057600080fd5b506004361061007d5760003560e01c8063ef48eee61161005b578063ef48eee6146100c6578063f2fde38b146100e2578063f851a440146100fe578063fc0c546a1461011c5761007d565b8063704b6c0214610082578063715018a61461009e5780638da5cb5b146100a8575b600080fd5b61009c60048036038101906100979190610624565b61013a565b005b6100a66101fa565b005b6100b0610282565b6040516100bd9190610660565b60405180910390f35b6100e060048036038101906100db91906106b1565b6102ab565b005b6100fc60048036038101906100f79190610624565b6103b1565b005b6101066104a9565b6040516101139190610660565b60405180910390f35b6101246104cf565b6040516101319190610750565b60405180910390f35b6101426104f5565b73ffffffffffffffffffffffffffffffffffffffff16610160610282565b73ffffffffffffffffffffffffffffffffffffffff16146101b6576040517f08c379a00000000000000000000000000000000000000000000000000000000081526004016101ad906107c8565b60405180910390fd5b80600160006101000a81548173ffffffffffffffffffffffffffffffffffffffff021916908373ffffffffffffffffffffffffffffffffffffffff16021790555050565b6102026104f5565b73ffffffffffffffffffffffffffffffffffffffff16610220610282565b73ffffffffffffffffffffffffffffffffffffffff1614610276576040517f08c379a000000000000000000000000000000000000000000000000000000000815260040161026d906107c8565b60405180910390fd5b61028060006104fd565b565b60008060009054906101000a900473ffffffffffffffffffffffffffffffffffffffff16905090565b600260009054906101000a900473ffffffffffffffffffffffffffffffffffffffff1673ffffffffffffffffffffffffffffffffffffffff166323b872dd33600160009054906101000a900473ffffffffffffffffffffffffffffffffffffffff16856040518463ffffffff1660e01b815260040161032c939291906107f7565b6020604051808303816000875af115801561034b573d6000803e3d6000fd5b505050506040513d601f19601f8201168201806040525081019061036f9190610866565b507f78eaebe37a28490ff43ed0e95bdc47de1587156ac0069b652e1d2d9f42464e98338383426040516103a59493929190610893565b60405180910390a15050565b6103b96104f5565b73ffffffffffffffffffffffffffffffffffffffff166103d7610282565b73ffffffffffffffffffffffffffffffffffffffff161461042d576040517f08c379a0000000000000000000000000000000000000000000000000000000008152600401610424906107c8565b60405180910390fd5b600073ffffffffffffffffffffffffffffffffffffffff168173ffffffffffffffffffffffffffffffffffffffff16141561049d576040517f08c379a00000000000000000000000000000000000000000000000000000000081526004016104949061094a565b60405180910390fd5b6104a6816104fd565b50565b600160009054906101000a900473ffffffffffffffffffffffffffffffffffffffff1681565b600260009054906101000a900473ffffffffffffffffffffffffffffffffffffffff1681565b600033905090565b60008060009054906101000a900473ffffffffffffffffffffffffffffffffffffffff169050816000806101000a81548173ffffffffffffffffffffffffffffffffffffffff021916908373ffffffffffffffffffffffffffffffffffffffff1602179055508173ffffffffffffffffffffffffffffffffffffffff168173ffffffffffffffffffffffffffffffffffffffff167f8be0079c531659141344cd1fd0a4f28419497f9722a3daafe3b4186f6b6457e060405160405180910390a35050565b600080fd5b600073ffffffffffffffffffffffffffffffffffffffff82169050919050565b60006105f1826105c6565b9050919050565b610601816105e6565b811461060c57600080fd5b50565b60008135905061061e816105f8565b92915050565b60006020828403121561063a576106396105c1565b5b60006106488482850161060f565b91505092915050565b61065a816105e6565b82525050565b60006020820190506106756000830184610651565b92915050565b6000819050919050565b61068e8161067b565b811461069957600080fd5b50565b6000813590506106ab81610685565b92915050565b600080604083850312156106c8576106c76105c1565b5b60006106d68582860161069c565b92505060206106e78582860161069c565b9150509250929050565b6000819050919050565b600061071661071161070c846105c6565b6106f1565b6105c6565b9050919050565b6000610728826106fb565b9050919050565b600061073a8261071d565b9050919050565b61074a8161072f565b82525050565b60006020820190506107656000830184610741565b92915050565b600082825260208201905092915050565b7f4f776e61626c653a2063616c6c6572206973206e6f7420746865206f776e6572600082015250565b60006107b260208361076b565b91506107bd8261077c565b602082019050919050565b600060208201905081810360008301526107e1816107a5565b9050919050565b6107f18161067b565b82525050565b600060608201905061080c6000830186610651565b6108196020830185610651565b61082660408301846107e8565b949350505050565b60008115159050919050565b6108438161082e565b811461084e57600080fd5b50565b6000815190506108608161083a565b92915050565b60006020828403121561087c5761087b6105c1565b5b600061088a84828501610851565b91505092915050565b60006080820190506108a86000830187610651565b6108b560208301866107e8565b6108c260408301856107e8565b6108cf60608301846107e8565b95945050505050565b7f4f776e61626c653a206e6577206f776e657220697320746865207a65726f206160008201527f6464726573730000000000000000000000000000000000000000000000000000602082015250565b600061093460268361076b565b915061093f826108d8565b604082019050919050565b6000602082019050818103600083015261096381610927565b905091905056fea26469706673582212204a8b62523fd3f160ff17a28e39ce099270f4353f6ef94ab54322bb46d64ca24164736f6c634300080a0033",
  "immutableReferences": {},
  "source": "// SPDX-License-Identifier: MIT\n\npragma solidity ^0.8.10;\n\nimport \"@openzeppelin/contracts/token/ERC20/IERC20.sol\";\nimport \"@openzeppelin/contracts/access/Ownable.sol\";\n\ncontract PaymentProcessor is Ownable {\n    address public admin;\n    IERC20 public token;\n\n    event PaymentDone(\n        address payer,\n        uint256 amount,\n        uint256 paymentId,\n        uint256 date\n    );\n\n    constructor(address adminAddress, address tokenAddress) public {\n        admin = adminAddress;\n        token = IERC20(tokenAddress);\n    }\n\n    function pay(uint256 amount, uint256 paymentId) external {\n        token.transferFrom(msg.sender, admin, amount);\n        emit PaymentDone(msg.sender, amount, paymentId, block.timestamp);\n    }\n\n    //admin\n    function setAdmin(address _newAdmin) public onlyOwner {\n        admin = _newAdmin;\n    }\n}\n",
  "sourcePath": "/home/fernando/Documentos/projetoStadium/contracts/PaymentProcessor.sol",
  "compiler": {
    "name": "solc",
    "version": "0.8.10+commit.fc410830.Emscripten.clang"
  },
  "schemaVersion": "3.4.3",
  "updatedAt": "2021-12-09T12:46:03.259Z",
  "networkType": "ethereum",
  "devdoc": {
    "kind": "dev",
    "methods": {
      "owner()": {
        "details": "Returns the address of the current owner."
      },
      "renounceOwnership()": {
        "details": "Leaves the contract without owner. It will not be possible to call `onlyOwner` functions anymore. Can only be called by the current owner. NOTE: Renouncing ownership will leave the contract without an owner, thereby removing any functionality that is only available to the owner."
      },
      "transferOwnership(address)": {
        "details": "Transfers ownership of the contract to a new account (`newOwner`). Can only be called by the current owner."
      }
    },
    "version": 1
  },
  "userdoc": {
    "kind": "user",
    "methods": {},
    "version": 1
  }
}